{
  "contractName": "ACL",
  "abi": [
    {
      "inputs": [],
      "name": "getFeeAddress",
      "outputs": [
        {
          "internalType": "address",
          "name": "fAddress",
          "type": "address"
        }
      ],
      "stateMutability": "view",
      "type": "function"
    }
  ],
  "bytecode": "0x608060405234801561001057600080fd5b506101d3806100206000396000f3fe608060405234801561001057600080fd5b506004361061002b5760003560e01c80634e7ceacb14610030575b600080fd5b61003861004e565b6040516100459190610139565b60405180910390f35b60008073c8e1e64287c60c8256ed6ded0d5860cebd91684390508073ffffffffffffffffffffffffffffffffffffffff1663412753586040518163ffffffff1660e01b815260040160206040518083038186803b1580156100ae57600080fd5b505afa1580156100c2573d6000803e3d6000fd5b505050506040513d601f19601f820116820180604052508101906100e69190610101565b91505090565b6000815190506100fb81610186565b92915050565b60006020828403121561011357600080fd5b6000610121848285016100ec565b91505092915050565b61013381610154565b82525050565b600060208201905061014e600083018461012a565b92915050565b600061015f82610166565b9050919050565b600073ffffffffffffffffffffffffffffffffffffffff82169050919050565b61018f81610154565b811461019a57600080fd5b5056fea264697066735822122084118d527885637f8494b83f44b0825c40c53af37301d60ed2b51fa70a358a4e64736f6c634300060a0033",
  "immutableReferences": {},
  "source": "// SPDX-License-Identifier: MIT\npragma solidity ^0.6.10;\npragma experimental ABIEncoderV2;\n\nimport \"./Roles.sol\";\nimport \"../config/Config.sol\";\n\ncontract ACL is Config {\n\n\n    modifier onlyEnterprise() {\n        Roles rl = Roles(RolesAddress);\n        uint flag = 0;\n        for (uint i = 0; i < rl.enterprisesCount(); i++) {\n            if ( msg.sender  ==  rl.veryEnterprise(i).enterpriseAddress) {\n            flag = 1;\n            }\n        }\n        require(flag == 1);\n        _;\n    }\n\n    function getFeeAddress() public view returns (address fAddress){\n         Roles rl = Roles(RolesAddress);\n         return rl.feeAddress();\n    }\n\n    modifier onlyAdmin() {\n        Roles rl = Roles(RolesAddress);\n        require(msg.sender == rl.adminAddress());\n        _;\n    }\n\n    modifier onlyStore() {\n        Roles rl = Roles(RolesAddress);\n        uint flag = 0;\n        for (uint i = 0; i < rl.storesCount(); i++) {\n            if ( msg.sender  == rl.veryStore(i).storeAddress) {\n            flag = 1;\n            }\n        }\n        require(flag == 1);\n        _;\n    }\n\n}\n",
  "sourcePath": "/Users/lu/Desktop/ningbojj/JJToken/contracts/access/ACL.sol",
  "compiler": {
    "name": "solc",
    "version": "0.6.10+commit.00c0fcaf.Emscripten.clang"
  },
  "schemaVersion": "3.2.3",
  "updatedAt": "2020-08-28T07:02:26.619Z",
  "devdoc": {
    "methods": {}
  },
  "userdoc": {
    "methods": {}
  }
}