{
  "contractName": "Coupons",
  "abi": [
    {
      "inputs": [
        {
          "internalType": "string",
          "name": "name",
          "type": "string"
        },
        {
          "internalType": "string",
          "name": "symbol",
          "type": "string"
        },
        {
          "internalType": "string",
          "name": "id",
          "type": "string"
        },
        {
          "internalType": "string[]",
          "name": "storeId",
          "type": "string[]"
        },
        {
          "internalType": "uint256",
          "name": "expireTime",
          "type": "uint256"
        },
        {
          "internalType": "uint256",
          "name": "issueTime",
          "type": "uint256"
        }
      ],
      "stateMutability": "nonpayable",
      "type": "constructor"
    },
    {
      "anonymous": false,
      "inputs": [
        {
          "indexed": true,
          "internalType": "address",
          "name": "owner",
          "type": "address"
        },
        {
          "indexed": true,
          "internalType": "address",
          "name": "spender",
          "type": "address"
        },
        {
          "indexed": false,
          "internalType": "uint256",
          "name": "value",
          "type": "uint256"
        }
      ],
      "name": "Approval",
      "type": "event"
    },
    {
      "anonymous": false,
      "inputs": [
        {
          "indexed": true,
          "internalType": "bytes32",
          "name": "orderHash",
          "type": "bytes32"
        }
      ],
      "name": "Cancel",
      "type": "event"
    },
    {
      "anonymous": false,
      "inputs": [
        {
          "indexed": false,
          "internalType": "address",
          "name": "token",
          "type": "address"
        },
        {
          "indexed": false,
          "internalType": "address",
          "name": "user",
          "type": "address"
        },
        {
          "indexed": false,
          "internalType": "uint256",
          "name": "amount",
          "type": "uint256"
        },
        {
          "indexed": false,
          "internalType": "uint256",
          "name": "balance",
          "type": "uint256"
        }
      ],
      "name": "Deposit",
      "type": "event"
    },
    {
      "anonymous": false,
      "inputs": [
        {
          "indexed": false,
          "internalType": "address",
          "name": "user",
          "type": "address"
        },
        {
          "indexed": false,
          "internalType": "address",
          "name": "newContract",
          "type": "address"
        }
      ],
      "name": "FundsMigrated",
      "type": "event"
    },
    {
      "anonymous": false,
      "inputs": [
        {
          "indexed": false,
          "internalType": "string",
          "name": "name",
          "type": "string"
        },
        {
          "indexed": false,
          "internalType": "string",
          "name": "symbol",
          "type": "string"
        },
        {
          "indexed": false,
          "internalType": "string",
          "name": "id",
          "type": "string"
        },
        {
          "indexed": false,
          "internalType": "string[]",
          "name": "storeId",
          "type": "string[]"
        },
        {
          "indexed": false,
          "internalType": "uint256",
          "name": "expireTime",
          "type": "uint256"
        },
        {
          "indexed": false,
          "internalType": "uint256",
          "name": "issueTime",
          "type": "uint256"
        }
      ],
      "name": "NewCoupon",
      "type": "event"
    },
    {
      "anonymous": false,
      "inputs": [
        {
          "indexed": false,
          "internalType": "address",
          "name": "tokenGet",
          "type": "address"
        },
        {
          "indexed": false,
          "internalType": "uint256",
          "name": "amountGet",
          "type": "uint256"
        },
        {
          "indexed": false,
          "internalType": "address",
          "name": "tokenGive",
          "type": "address"
        },
        {
          "indexed": false,
          "internalType": "uint256",
          "name": "amountGive",
          "type": "uint256"
        },
        {
          "indexed": false,
          "internalType": "uint256",
          "name": "nonce",
          "type": "uint256"
        },
        {
          "indexed": false,
          "internalType": "address",
          "name": "maker",
          "type": "address"
        },
        {
          "indexed": true,
          "internalType": "bytes32",
          "name": "orderHash",
          "type": "bytes32"
        }
      ],
      "name": "OrderForUser",
      "type": "event"
    },
    {
      "anonymous": false,
      "inputs": [
        {
          "indexed": true,
          "internalType": "bytes32",
          "name": "orderHash",
          "type": "bytes32"
        },
        {
          "indexed": false,
          "internalType": "uint256",
          "name": "amount",
          "type": "uint256"
        },
        {
          "indexed": false,
          "internalType": "address",
          "name": "give",
          "type": "address"
        }
      ],
      "name": "TradeForUser",
      "type": "event"
    },
    {
      "anonymous": false,
      "inputs": [
        {
          "indexed": true,
          "internalType": "address",
          "name": "from",
          "type": "address"
        },
        {
          "indexed": true,
          "internalType": "address",
          "name": "to",
          "type": "address"
        },
        {
          "indexed": false,
          "internalType": "uint256",
          "name": "value",
          "type": "uint256"
        }
      ],
      "name": "Transfer",
      "type": "event"
    },
    {
      "anonymous": false,
      "inputs": [
        {
          "indexed": false,
          "internalType": "address",
          "name": "token",
          "type": "address"
        },
        {
          "indexed": false,
          "internalType": "address",
          "name": "user",
          "type": "address"
        },
        {
          "indexed": false,
          "internalType": "uint256",
          "name": "amount",
          "type": "uint256"
        },
        {
          "indexed": false,
          "internalType": "uint256",
          "name": "balance",
          "type": "uint256"
        }
      ],
      "name": "Withdraw",
      "type": "event"
    },
    {
      "inputs": [
        {
          "internalType": "address",
          "name": "owner",
          "type": "address"
        },
        {
          "internalType": "address",
          "name": "spender",
          "type": "address"
        }
      ],
      "name": "allowance",
      "outputs": [
        {
          "internalType": "uint256",
          "name": "",
          "type": "uint256"
        }
      ],
      "stateMutability": "view",
      "type": "function"
    },
    {
      "inputs": [
        {
          "internalType": "address",
          "name": "spender",
          "type": "address"
        },
        {
          "internalType": "uint256",
          "name": "amount",
          "type": "uint256"
        }
      ],
      "name": "approve",
      "outputs": [
        {
          "internalType": "bool",
          "name": "",
          "type": "bool"
        }
      ],
      "stateMutability": "nonpayable",
      "type": "function"
    },
    {
      "inputs": [
        {
          "internalType": "address",
          "name": "account",
          "type": "address"
        }
      ],
      "name": "balanceOf",
      "outputs": [
        {
          "internalType": "uint256",
          "name": "",
          "type": "uint256"
        }
      ],
      "stateMutability": "view",
      "type": "function"
    },
    {
      "inputs": [
        {
          "internalType": "uint256",
          "name": "",
          "type": "uint256"
        }
      ],
      "name": "coupons",
      "outputs": [
        {
          "internalType": "string",
          "name": "name",
          "type": "string"
        },
        {
          "internalType": "string",
          "name": "symbol",
          "type": "string"
        },
        {
          "internalType": "string",
          "name": "id",
          "type": "string"
        },
        {
          "internalType": "uint256",
          "name": "expireTime",
          "type": "uint256"
        },
        {
          "internalType": "uint256",
          "name": "issueTime",
          "type": "uint256"
        }
      ],
      "stateMutability": "view",
      "type": "function"
    },
    {
      "inputs": [],
      "name": "decimals",
      "outputs": [
        {
          "internalType": "uint8",
          "name": "",
          "type": "uint8"
        }
      ],
      "stateMutability": "view",
      "type": "function"
    },
    {
      "inputs": [
        {
          "internalType": "address",
          "name": "spender",
          "type": "address"
        },
        {
          "internalType": "uint256",
          "name": "subtractedValue",
          "type": "uint256"
        }
      ],
      "name": "decreaseAllowance",
      "outputs": [
        {
          "internalType": "bool",
          "name": "",
          "type": "bool"
        }
      ],
      "stateMutability": "nonpayable",
      "type": "function"
    },
    {
      "inputs": [],
      "name": "getFeeAddress",
      "outputs": [
        {
          "internalType": "address",
          "name": "fAddress",
          "type": "address"
        }
      ],
      "stateMutability": "view",
      "type": "function"
    },
    {
      "inputs": [
        {
          "internalType": "address",
          "name": "spender",
          "type": "address"
        },
        {
          "internalType": "uint256",
          "name": "addedValue",
          "type": "uint256"
        }
      ],
      "name": "increaseAllowance",
      "outputs": [
        {
          "internalType": "bool",
          "name": "",
          "type": "bool"
        }
      ],
      "stateMutability": "nonpayable",
      "type": "function"
    },
    {
      "inputs": [],
      "name": "name",
      "outputs": [
        {
          "internalType": "string",
          "name": "",
          "type": "string"
        }
      ],
      "stateMutability": "view",
      "type": "function"
    },
    {
      "inputs": [],
      "name": "storePercentage",
      "outputs": [
        {
          "internalType": "uint256",
          "name": "",
          "type": "uint256"
        }
      ],
      "stateMutability": "view",
      "type": "function"
    },
    {
      "inputs": [],
      "name": "symbol",
      "outputs": [
        {
          "internalType": "string",
          "name": "",
          "type": "string"
        }
      ],
      "stateMutability": "view",
      "type": "function"
    },
    {
      "inputs": [
        {
          "internalType": "address",
          "name": "",
          "type": "address"
        },
        {
          "internalType": "address",
          "name": "",
          "type": "address"
        }
      ],
      "name": "tokens",
      "outputs": [
        {
          "internalType": "uint256",
          "name": "",
          "type": "uint256"
        }
      ],
      "stateMutability": "view",
      "type": "function"
    },
    {
      "inputs": [],
      "name": "totalSupply",
      "outputs": [
        {
          "internalType": "uint256",
          "name": "",
          "type": "uint256"
        }
      ],
      "stateMutability": "view",
      "type": "function"
    },
    {
      "inputs": [
        {
          "internalType": "address",
          "name": "recipient",
          "type": "address"
        },
        {
          "internalType": "uint256",
          "name": "amount",
          "type": "uint256"
        }
      ],
      "name": "transfer",
      "outputs": [
        {
          "internalType": "bool",
          "name": "",
          "type": "bool"
        }
      ],
      "stateMutability": "nonpayable",
      "type": "function"
    },
    {
      "inputs": [
        {
          "internalType": "address",
          "name": "sender",
          "type": "address"
        },
        {
          "internalType": "address",
          "name": "recipient",
          "type": "address"
        },
        {
          "internalType": "uint256",
          "name": "amount",
          "type": "uint256"
        }
      ],
      "name": "transferFrom",
      "outputs": [
        {
          "internalType": "bool",
          "name": "",
          "type": "bool"
        }
      ],
      "stateMutability": "nonpayable",
      "type": "function"
    },
    {
      "inputs": [],
      "name": "getInfo",
      "outputs": [
        {
          "components": [
            {
              "internalType": "string",
              "name": "name",
              "type": "string"
            },
            {
              "internalType": "string",
              "name": "symbol",
              "type": "string"
            },
            {
              "internalType": "string",
              "name": "id",
              "type": "string"
            },
            {
              "internalType": "string[]",
              "name": "storeId",
              "type": "string[]"
            },
            {
              "internalType": "uint256",
              "name": "expireTime",
              "type": "uint256"
            },
            {
              "internalType": "uint256",
              "name": "issueTime",
              "type": "uint256"
            }
          ],
          "internalType": "struct Coupons.Coupon",
          "name": "cp",
          "type": "tuple"
        }
      ],
      "stateMutability": "view",
      "type": "function"
    },
    {
      "inputs": [
        {
          "internalType": "address",
          "name": "userAddress",
          "type": "address"
        }
      ],
      "name": "getBalance",
      "outputs": [
        {
          "internalType": "uint256",
          "name": "",
          "type": "uint256"
        }
      ],
      "stateMutability": "view",
      "type": "function"
    },
    {
      "inputs": [
        {
          "internalType": "address",
          "name": "userAddress",
          "type": "address"
        }
      ],
      "name": "getJJTokenBalance",
      "outputs": [
        {
          "internalType": "uint256",
          "name": "",
          "type": "uint256"
        }
      ],
      "stateMutability": "view",
      "type": "function"
    },
    {
      "inputs": [
        {
          "internalType": "uint256",
          "name": "_storePercentage",
          "type": "uint256"
        }
      ],
      "name": "setStorePercentage",
      "outputs": [
        {
          "internalType": "bool",
          "name": "",
          "type": "bool"
        }
      ],
      "stateMutability": "nonpayable",
      "type": "function"
    },
    {
      "inputs": [
        {
          "internalType": "uint256",
          "name": "amount",
          "type": "uint256"
        }
      ],
      "name": "withdraw",
      "outputs": [
        {
          "internalType": "address",
          "name": "",
          "type": "address"
        }
      ],
      "stateMutability": "payable",
      "type": "function"
    },
    {
      "inputs": [
        {
          "internalType": "address[]",
          "name": "staff",
          "type": "address[]"
        },
        {
          "internalType": "uint256",
          "name": "amount",
          "type": "uint256"
        }
      ],
      "name": "batchMint",
      "outputs": [],
      "stateMutability": "nonpayable",
      "type": "function"
    },
    {
      "inputs": [
        {
          "internalType": "address",
          "name": "enterpriseAddress",
          "type": "address"
        },
        {
          "internalType": "uint256",
          "name": "amount",
          "type": "uint256"
        }
      ],
      "name": "issue",
      "outputs": [],
      "stateMutability": "nonpayable",
      "type": "function"
    },
    {
      "inputs": [
        {
          "internalType": "address",
          "name": "staff",
          "type": "address"
        },
        {
          "internalType": "uint256",
          "name": "amount",
          "type": "uint256"
        }
      ],
      "name": "mint",
      "outputs": [],
      "stateMutability": "nonpayable",
      "type": "function"
    },
    {
      "inputs": [
        {
          "internalType": "address",
          "name": "account",
          "type": "address"
        },
        {
          "internalType": "uint256",
          "name": "amount",
          "type": "uint256"
        }
      ],
      "name": "burn",
      "outputs": [],
      "stateMutability": "nonpayable",
      "type": "function"
    },
    {
      "inputs": [
        {
          "internalType": "address",
          "name": "recipient",
          "type": "address"
        },
        {
          "internalType": "uint256",
          "name": "amount",
          "type": "uint256"
        },
        {
          "internalType": "string",
          "name": "_orderId",
          "type": "string"
        },
        {
          "internalType": "string[]",
          "name": "_orderDetailId",
          "type": "string[]"
        },
        {
          "internalType": "string",
          "name": "_orderContent",
          "type": "string"
        },
        {
          "internalType": "string[]",
          "name": "_orderDetailContent",
          "type": "string[]"
        }
      ],
      "name": "couponTransfer",
      "outputs": [
        {
          "internalType": "bool",
          "name": "",
          "type": "bool"
        }
      ],
      "stateMutability": "nonpayable",
      "type": "function"
    },
    {
      "inputs": [
        {
          "internalType": "address",
          "name": "recipient",
          "type": "address"
        },
        {
          "internalType": "uint256",
          "name": "amount",
          "type": "uint256"
        },
        {
          "internalType": "string",
          "name": "_orderId",
          "type": "string"
        },
        {
          "internalType": "string[]",
          "name": "_orderDetailId",
          "type": "string[]"
        },
        {
          "internalType": "string",
          "name": "_orderContent",
          "type": "string"
        },
        {
          "internalType": "string[]",
          "name": "_orderDetailContent",
          "type": "string[]"
        }
      ],
      "name": "couponRefund",
      "outputs": [
        {
          "internalType": "bool",
          "name": "",
          "type": "bool"
        }
      ],
      "stateMutability": "nonpayable",
      "type": "function"
    }
  ],
  "bytecode": "0x60806040523480156200001157600080fd5b506040516200497e3803806200497e833981810160405281019062000037919062000692565b85858160039080519060200190620000519291906200040f565b5080600490805190602001906200006a9291906200040f565b506012600560006101000a81548160ff021916908360ff1602179055505050620000b3336200009e620001ec60201b60201c565b60ff16600a0a6000026200020360201b60201c565b60086040518060c001604052808881526020018781526020018681526020018581526020018481526020018381525090806001815401808255809150506001900390600052602060002090600602016000909190919091506000820151816000019080519060200190620001299291906200040f565b506020820151816001019080519060200190620001489291906200040f565b506040820151816002019080519060200190620001679291906200040f565b5060608201518160030190805190602001906200018692919062000496565b506080820151816004015560a0820151816005015550507f703fca694b65baeb006e0106553897b88844f16761a46e672841b3ee04185446868686868686604051620001d8969594939291906200093a565b60405180910390a150505050505062000b79565b6000600560009054906101000a900460ff16905090565b600073ffffffffffffffffffffffffffffffffffffffff168273ffffffffffffffffffffffffffffffffffffffff16141562000276576040517f08c379a00000000000000000000000000000000000000000000000000000000081526004016200026d90620009e5565b60405180910390fd5b6200028a60008383620003b260201b60201c565b620002a681600254620003b760201b620021ee1790919060201c565b60028190555062000304816000808573ffffffffffffffffffffffffffffffffffffffff1673ffffffffffffffffffffffffffffffffffffffff16815260200190815260200160002054620003b760201b620021ee1790919060201c565b6000808473ffffffffffffffffffffffffffffffffffffffff1673ffffffffffffffffffffffffffffffffffffffff168152602001908152602001600020819055508173ffffffffffffffffffffffffffffffffffffffff16600073ffffffffffffffffffffffffffffffffffffffff167fddf252ad1be2c89b69c2b068fc378daa952ba7f163c4a11628f55a4df523b3ef83604051620003a6919062000a07565b60405180910390a35050565b505050565b60008082840190508381101562000405576040517f08c379a0000000000000000000000000000000000000000000000000000000008152600401620003fc90620009c3565b60405180910390fd5b8091505092915050565b828054600181600116156101000203166002900490600052602060002090601f016020900481019282601f106200045257805160ff191683800117855562000483565b8280016001018555821562000483579182015b828111156200048257825182559160200191906001019062000465565b5b509050620004929190620004fd565b5090565b828054828255906000526020600020908101928215620004ea579160200282015b82811115620004e9578251829080519060200190620004d89291906200040f565b5091602001919060010190620004b7565b5b509050620004f9919062000525565b5090565b6200052291905b808211156200051e57600081600090555060010162000504565b5090565b90565b6200055391905b808211156200054f576000818162000545919062000556565b506001016200052c565b5090565b90565b50805460018160011615610100020316600290046000825580601f106200057e57506200059f565b601f0160209004906000526020600020908101906200059e9190620004fd565b5b50565b600082601f830112620005b457600080fd5b8151620005cb620005c58262000a52565b62000a24565b9150818183526020840193506020810190508360005b83811015620006155781518601620005fa88826200061f565b845260208401935060208301925050600181019050620005e1565b5050505092915050565b600082601f8301126200063157600080fd5b815162000648620006428262000a7b565b62000a24565b915080825260208301602083018583830111156200066557600080fd5b6200067283828462000b18565b50505092915050565b6000815190506200068c8162000b5f565b92915050565b60008060008060008060c08789031215620006ac57600080fd5b600087015167ffffffffffffffff811115620006c757600080fd5b620006d589828a016200061f565b965050602087015167ffffffffffffffff811115620006f357600080fd5b6200070189828a016200061f565b955050604087015167ffffffffffffffff8111156200071f57600080fd5b6200072d89828a016200061f565b945050606087015167ffffffffffffffff8111156200074b57600080fd5b6200075989828a01620005a2565b93505060806200076c89828a016200067b565b92505060a06200077f89828a016200067b565b9150509295509295509295565b60006200079a838362000823565b905092915050565b6000620007af8262000ab8565b620007bb818562000adb565b935083602082028501620007cf8562000aa8565b8060005b85811015620008115784840389528151620007ef85826200078c565b9450620007fc8362000ace565b925060208a01995050600181019050620007d3565b50829750879550505050505092915050565b6000620008308262000ac3565b6200083c818562000aec565b93506200084e81856020860162000b18565b620008598162000b4e565b840191505092915050565b6000620008718262000ac3565b6200087d818562000afd565b93506200088f81856020860162000b18565b6200089a8162000b4e565b840191505092915050565b6000620008b4601b8362000afd565b91507f536166654d6174683a206164646974696f6e206f766572666c6f7700000000006000830152602082019050919050565b6000620008f6601f8362000afd565b91507f45524332303a206d696e7420746f20746865207a65726f2061646472657373006000830152602082019050919050565b620009348162000b0e565b82525050565b600060c082019050818103600083015262000956818962000864565b905081810360208301526200096c818862000864565b9050818103604083015262000982818762000864565b90508181036060830152620009988186620007a2565b9050620009a9608083018562000929565b620009b860a083018462000929565b979650505050505050565b60006020820190508181036000830152620009de81620008a5565b9050919050565b6000602082019050818103600083015262000a0081620008e7565b9050919050565b600060208201905062000a1e600083018462000929565b92915050565b6000604051905081810181811067ffffffffffffffff8211171562000a4857600080fd5b8060405250919050565b600067ffffffffffffffff82111562000a6a57600080fd5b602082029050602081019050919050565b600067ffffffffffffffff82111562000a9357600080fd5b601f19601f8301169050602081019050919050565b6000819050602082019050919050565b600081519050919050565b600081519050919050565b6000602082019050919050565b600082825260208201905092915050565b600082825260208201905092915050565b600082825260208201905092915050565b6000819050919050565b60005b8381101562000b3857808201518184015260208101905062000b1b565b8381111562000b48576000848401525b50505050565b6000601f19601f8301169050919050565b62000b6a8162000b0e565b811462000b7657600080fd5b50565b613df58062000b896000396000f3fe6080604052600436106101815760003560e01c806356270751116100d15780639dc29fac1161008a578063c5c5bf7211610064578063c5c5bf72146105ed578063dd62ed3e1461062a578063f831cda314610667578063f8b2cb4f146106a457610181565b80639dc29fac1461054a578063a457c2d714610573578063a9059cbb146105b057610181565b806356270751146104285780635a9b0b891461046557806370a082311461049057806383b74baa146104cd578063867904b4146104f657806395d89b411461051f57610181565b8063313ce5671161013e5780634d655bc0116101185780634d655bc0146103585780634e7ceacb14610395578063508493bc146103c057806351e877de146103fd57610181565b8063313ce567146102c757806339509351146102f257806340c10f191461032f57610181565b806306fdde0314610186578063095ea7b3146101b157806318160ddd146101ee57806323b872dd146102195780632e1a7d4d1461025657806330828e9214610286575b600080fd5b34801561019257600080fd5b5061019b6106e1565b6040516101a8919061389f565b60405180910390f35b3480156101bd57600080fd5b506101d860048036038101906101d39190612fed565b610783565b6040516101e59190613884565b60405180910390f35b3480156101fa57600080fd5b506102036107a1565b6040516102109190613ac2565b60405180910390f35b34801561022557600080fd5b50610240600480360381019061023b9190612f9e565b6107ab565b60405161024d9190613884565b60405180910390f35b610270600480360381019061026b9190613211565b610884565b60405161027d91906137e0565b60405180910390f35b34801561029257600080fd5b506102ad60048036038101906102a89190613211565b610a8a565b6040516102be9594939291906138f8565b60405180910390f35b3480156102d357600080fd5b506102dc610c95565b6040516102e99190613add565b60405180910390f35b3480156102fe57600080fd5b5061031960048036038101906103149190612fed565b610cac565b6040516103269190613884565b60405180910390f35b34801561033b57600080fd5b5061035660048036038101906103519190612fed565b610d5f565b005b34801561036457600080fd5b5061037f600480360381019061037a9190613029565b610fa7565b60405161038c9190613884565b60405180910390f35b3480156103a157600080fd5b506103aa6112e6565b6040516103b791906137e0565b60405180910390f35b3480156103cc57600080fd5b506103e760048036038101906103e29190612f62565b611384565b6040516103f49190613ac2565b60405180910390f35b34801561040957600080fd5b506104126113a9565b60405161041f9190613ac2565b60405180910390f35b34801561043457600080fd5b5061044f600480360381019061044a9190613211565b6113af565b60405161045c9190613884565b60405180910390f35b34801561047157600080fd5b5061047a61149e565b6040516104879190613aa0565b60405180910390f35b34801561049c57600080fd5b506104b760048036038101906104b29190612f10565b6117b5565b6040516104c49190613ac2565b60405180910390f35b3480156104d957600080fd5b506104f460048036038101906104ef9190613112565b6117fd565b005b34801561050257600080fd5b5061051d60048036038101906105189190612fed565b611a75565b005b34801561052b57600080fd5b50610534611bcf565b604051610541919061389f565b60405180910390f35b34801561055657600080fd5b50610571600480360381019061056c9190612fed565b611c71565b005b34801561057f57600080fd5b5061059a60048036038101906105959190612fed565b611e0f565b6040516105a79190613884565b60405180910390f35b3480156105bc57600080fd5b506105d760048036038101906105d29190612fed565b611edc565b6040516105e49190613884565b60405180910390f35b3480156105f957600080fd5b50610614600480360381019061060f9190612f10565b611efa565b6040516106219190613ac2565b60405180910390f35b34801561063657600080fd5b50610651600480360381019061064c9190612f62565b611fa5565b60405161065e9190613ac2565b60405180910390f35b34801561067357600080fd5b5061068e60048036038101906106899190613029565b61202c565b60405161069b9190613884565b60405180910390f35b3480156106b057600080fd5b506106cb60048036038101906106c69190612f10565b6121dc565b6040516106d89190613ac2565b60405180910390f35b606060038054600181600116156101000203166002900480601f0160208091040260200160405190810160405280929190818152602001828054600181600116156101000203166002900480156107795780601f1061074e57610100808354040283529160200191610779565b820191906000526020600020905b81548152906001019060200180831161075c57829003601f168201915b5050505050905090565b6000610797610790612243565b848461224b565b6001905092915050565b6000600254905090565b60006107b8848484612416565b610879846107c4612243565b61087485604051806060016040528060288152602001613d7360289139600160008b73ffffffffffffffffffffffffffffffffffffffff1673ffffffffffffffffffffffffffffffffffffffff168152602001908152602001600020600061082a612243565b73ffffffffffffffffffffffffffffffffffffffff1673ffffffffffffffffffffffffffffffffffffffff168152602001908152602001600020546126ab9092919063ffffffff16565b61224b565b600190509392505050565b600081610890336121dc565b10156108d1576040517f08c379a00000000000000000000000000000000000000000000000000000000081526004016108c8906139c0565b60405180910390fd5b6108db3383611c71565b600073bcff0801bffc7e687d99cc224002cbe4cabc523c90508073ffffffffffffffffffffffffffffffffffffffff1663f8a779ff33610939606461092b6007548961270690919063ffffffff16565b61277690919063ffffffff16565b6040518363ffffffff1660e01b8152600401610956929190613832565b602060405180830381600087803b15801561097057600080fd5b505af1158015610984573d6000803e3d6000fd5b505050506040513d601f19601f820116820180604052508101906109a89190613166565b5060006064905060006109c6600754836127c090919063ffffffff16565b90508273ffffffffffffffffffffffffffffffffffffffff1663f8a779ff6109ec6112e6565b610a126064610a04868b61270690919063ffffffff16565b61277690919063ffffffff16565b6040518363ffffffff1660e01b8152600401610a2f92919061385b565b602060405180830381600087803b158015610a4957600080fd5b505af1158015610a5d573d6000803e3d6000fd5b505050506040513d601f19601f82011682018060405250810190610a819190613166565b50505050919050565b60088181548110610a9757fe5b9060005260206000209060060201600091509050806000018054600181600116156101000203166002900480601f016020809104026020016040519081016040528092919081815260200182805460018160011615610100020316600290048015610b435780601f10610b1857610100808354040283529160200191610b43565b820191906000526020600020905b815481529060010190602001808311610b2657829003601f168201915b505050505090806001018054600181600116156101000203166002900480601f016020809104026020016040519081016040528092919081815260200182805460018160011615610100020316600290048015610be15780601f10610bb657610100808354040283529160200191610be1565b820191906000526020600020905b815481529060010190602001808311610bc457829003601f168201915b505050505090806002018054600181600116156101000203166002900480601f016020809104026020016040519081016040528092919081815260200182805460018160011615610100020316600290048015610c7f5780601f10610c5457610100808354040283529160200191610c7f565b820191906000526020600020905b815481529060010190602001808311610c6257829003601f168201915b5050505050908060040154908060050154905085565b6000600560009054906101000a900460ff16905090565b6000610d55610cb9612243565b84610d508560016000610cca612243565b73ffffffffffffffffffffffffffffffffffffffff1673ffffffffffffffffffffffffffffffffffffffff16815260200190815260200160002060008973ffffffffffffffffffffffffffffffffffffffff1673ffffffffffffffffffffffffffffffffffffffff168152602001908152602001600020546121ee90919063ffffffff16565b61224b565b6001905092915050565b600073c8e1e64287c60c8256ed6ded0d5860cebd9168439050600080905060008090505b8273ffffffffffffffffffffffffffffffffffffffff1663e1984c306040518163ffffffff1660e01b815260040160206040518083038186803b158015610dc957600080fd5b505afa158015610ddd573d6000803e3d6000fd5b505050506040513d601f19601f82011682018060405250810190610e01919061323a565b811015610edf578273ffffffffffffffffffffffffffffffffffffffff16632182a562826040518263ffffffff1660e01b8152600401610e419190613ac2565b60006040518083038186803b158015610e5957600080fd5b505afa158015610e6d573d6000803e3d6000fd5b505050506040513d6000823e3d601f19601f82011682018060405250810190610e96919061318f565b6040015173ffffffffffffffffffffffffffffffffffffffff163373ffffffffffffffffffffffffffffffffffffffff161415610ed257600191505b8080600101915050610d83565b5060018114610eed57600080fd5b600073bcff0801bffc7e687d99cc224002cbe4cabc523c90508073ffffffffffffffffffffffffffffffffffffffff166323b872dd3330876040518463ffffffff1660e01b8152600401610f43939291906137fb565b602060405180830381600087803b158015610f5d57600080fd5b505af1158015610f71573d6000803e3d6000fd5b505050506040513d601f19601f82011682018060405250810190610f959190613166565b50610fa0858561280a565b5050505050565b60008073c8e1e64287c60c8256ed6ded0d5860cebd9168439050600080905060008090505b8273ffffffffffffffffffffffffffffffffffffffff1663aa0cd2b86040518163ffffffff1660e01b815260040160206040518083038186803b15801561101257600080fd5b505afa158015611026573d6000803e3d6000fd5b505050506040513d601f19601f8201168201806040525081019061104a919061323a565b811015611128578273ffffffffffffffffffffffffffffffffffffffff1663335499e5826040518263ffffffff1660e01b815260040161108a9190613ac2565b60006040518083038186803b1580156110a257600080fd5b505afa1580156110b6573d6000803e3d6000fd5b505050506040513d6000823e3d601f19601f820116820180604052508101906110df91906131d0565b6040015173ffffffffffffffffffffffffffffffffffffffff163373ffffffffffffffffffffffffffffffffffffffff16141561111b57600191505b8080600101915050610fcc565b506001811461113657600080fd5b611141338a8a612416565b60007322e7dd9b7c2708de833b880ef9804d3e31689fa690508073ffffffffffffffffffffffffffffffffffffffff1663c2a2b32f89886040518363ffffffff1660e01b81526004016111959291906138c1565b600060405180830381600087803b1580156111af57600080fd5b505af11580156111c3573d6000803e3d6000fd5b5050505060007322e7dd9b7c2708de833b880ef9804d3e31689fa690508551885114611224576040517f08c379a000000000000000000000000000000000000000000000000000000000815260040161121b90613a60565b60405180910390fd5b60008090505b88518110156112d3578173ffffffffffffffffffffffffffffffffffffffff166326d709258a838151811061125b57fe5b602002602001015189848151811061126f57fe5b60200260200101516040518363ffffffff1660e01b81526004016112949291906138c1565b600060405180830381600087803b1580156112ae57600080fd5b505af11580156112c2573d6000803e3d6000fd5b50505050808060010191505061122a565b5060019450505050509695505050505050565b60008073c8e1e64287c60c8256ed6ded0d5860cebd91684390508073ffffffffffffffffffffffffffffffffffffffff1663412753586040518163ffffffff1660e01b815260040160206040518083038186803b15801561134657600080fd5b505afa15801561135a573d6000803e3d6000fd5b505050506040513d601f19601f8201168201806040525081019061137e9190612f39565b91505090565b6006602052816000526040600020602052806000526040600020600091509150505481565b60075481565b60008073c8e1e64287c60c8256ed6ded0d5860cebd91684390508073ffffffffffffffffffffffffffffffffffffffff1663fc6f94686040518163ffffffff1660e01b815260040160206040518083038186803b15801561140f57600080fd5b505afa158015611423573d6000803e3d6000fd5b505050506040513d601f19601f820116820180604052508101906114479190612f39565b73ffffffffffffffffffffffffffffffffffffffff163373ffffffffffffffffffffffffffffffffffffffff161461147e57600080fd5b60006064905080841061149057600080fd5b836007819055505050919050565b6114a6612bb2565b60086000815481106114b457fe5b90600052602060002090600602016040518060c0016040529081600082018054600181600116156101000203166002900480601f0160208091040260200160405190810160405280929190818152602001828054600181600116156101000203166002900480156115665780601f1061153b57610100808354040283529160200191611566565b820191906000526020600020905b81548152906001019060200180831161154957829003601f168201915b50505050508152602001600182018054600181600116156101000203166002900480601f0160208091040260200160405190810160405280929190818152602001828054600181600116156101000203166002900480156116085780601f106115dd57610100808354040283529160200191611608565b820191906000526020600020905b8154815290600101906020018083116115eb57829003601f168201915b50505050508152602001600282018054600181600116156101000203166002900480601f0160208091040260200160405190810160405280929190818152602001828054600181600116156101000203166002900480156116aa5780601f1061167f576101008083540402835291602001916116aa565b820191906000526020600020905b81548152906001019060200180831161168d57829003601f168201915b5050505050815260200160038201805480602002602001604051908101604052809291908181526020016000905b82821015611794578382906000526020600020018054600181600116156101000203166002900480601f0160208091040260200160405190810160405280929190818152602001828054600181600116156101000203166002900480156117805780601f1061175557610100808354040283529160200191611780565b820191906000526020600020905b81548152906001019060200180831161176357829003601f168201915b5050505050815260200190600101906116d8565b50505050815260200160048201548152602001600582015481525050905090565b60008060008373ffffffffffffffffffffffffffffffffffffffff1673ffffffffffffffffffffffffffffffffffffffff168152602001908152602001600020549050919050565b600073c8e1e64287c60c8256ed6ded0d5860cebd9168439050600080905060008090505b8273ffffffffffffffffffffffffffffffffffffffff1663e1984c306040518163ffffffff1660e01b815260040160206040518083038186803b15801561186757600080fd5b505afa15801561187b573d6000803e3d6000fd5b505050506040513d601f19601f8201168201806040525081019061189f919061323a565b81101561197d578273ffffffffffffffffffffffffffffffffffffffff16632182a562826040518263ffffffff1660e01b81526004016118df9190613ac2565b60006040518083038186803b1580156118f757600080fd5b505afa15801561190b573d6000803e3d6000fd5b505050506040513d6000823e3d601f19601f82011682018060405250810190611934919061318f565b6040015173ffffffffffffffffffffffffffffffffffffffff163373ffffffffffffffffffffffffffffffffffffffff16141561197057600191505b8080600101915050611821565b506001811461198b57600080fd5b60008090505b8451811015611a6e57600073bcff0801bffc7e687d99cc224002cbe4cabc523c90508073ffffffffffffffffffffffffffffffffffffffff166323b872dd3330886040518463ffffffff1660e01b81526004016119f0939291906137fb565b602060405180830381600087803b158015611a0a57600080fd5b505af1158015611a1e573d6000803e3d6000fd5b505050506040513d601f19601f82011682018060405250810190611a429190613166565b50611a60868381518110611a5257fe5b60200260200101518661280a565b508080600101915050611991565b5050505050565b600073c8e1e64287c60c8256ed6ded0d5860cebd91684390508073ffffffffffffffffffffffffffffffffffffffff1663fc6f94686040518163ffffffff1660e01b815260040160206040518083038186803b158015611ad457600080fd5b505afa158015611ae8573d6000803e3d6000fd5b505050506040513d601f19601f82011682018060405250810190611b0c9190612f39565b73ffffffffffffffffffffffffffffffffffffffff163373ffffffffffffffffffffffffffffffffffffffff1614611b4357600080fd5b600073bcff0801bffc7e687d99cc224002cbe4cabc523c90508073ffffffffffffffffffffffffffffffffffffffff16631c9a53b585856040518363ffffffff1660e01b8152600401611b9792919061385b565b600060405180830381600087803b158015611bb157600080fd5b505af1158015611bc5573d6000803e3d6000fd5b5050505050505050565b606060048054600181600116156101000203166002900480601f016020809104026020016040519081016040528092919081815260200182805460018160011615610100020316600290048015611c675780601f10611c3c57610100808354040283529160200191611c67565b820191906000526020600020905b815481529060010190602001808311611c4a57829003601f168201915b5050505050905090565b600073c8e1e64287c60c8256ed6ded0d5860cebd9168439050600080905060008090505b8273ffffffffffffffffffffffffffffffffffffffff1663aa0cd2b86040518163ffffffff1660e01b815260040160206040518083038186803b158015611cdb57600080fd5b505afa158015611cef573d6000803e3d6000fd5b505050506040513d601f19601f82011682018060405250810190611d13919061323a565b811015611df1578273ffffffffffffffffffffffffffffffffffffffff1663335499e5826040518263ffffffff1660e01b8152600401611d539190613ac2565b60006040518083038186803b158015611d6b57600080fd5b505afa158015611d7f573d6000803e3d6000fd5b505050506040513d6000823e3d601f19601f82011682018060405250810190611da891906131d0565b6040015173ffffffffffffffffffffffffffffffffffffffff163373ffffffffffffffffffffffffffffffffffffffff161415611de457600191505b8080600101915050611c95565b5060018114611dff57600080fd5b611e09848461299e565b50505050565b6000611ed2611e1c612243565b84611ecd85604051806060016040528060258152602001613d9b6025913960016000611e46612243565b73ffffffffffffffffffffffffffffffffffffffff1673ffffffffffffffffffffffffffffffffffffffff16815260200190815260200160002060008a73ffffffffffffffffffffffffffffffffffffffff1673ffffffffffffffffffffffffffffffffffffffff168152602001908152602001600020546126ab9092919063ffffffff16565b61224b565b6001905092915050565b6000611ef0611ee9612243565b8484612416565b6001905092915050565b60008073bcff0801bffc7e687d99cc224002cbe4cabc523c90508073ffffffffffffffffffffffffffffffffffffffff166370a08231846040518263ffffffff1660e01b8152600401611f4d91906137e0565b60206040518083038186803b158015611f6557600080fd5b505afa158015611f79573d6000803e3d6000fd5b505050506040513d601f19601f82011682018060405250810190611f9d919061323a565b915050919050565b6000600160008473ffffffffffffffffffffffffffffffffffffffff1673ffffffffffffffffffffffffffffffffffffffff16815260200190815260200160002060008373ffffffffffffffffffffffffffffffffffffffff1673ffffffffffffffffffffffffffffffffffffffff16815260200190815260200160002054905092915050565b6000612039338888612416565b60007322e7dd9b7c2708de833b880ef9804d3e31689fa690508073ffffffffffffffffffffffffffffffffffffffff1663c2a2b32f87866040518363ffffffff1660e01b815260040161208d9291906138c1565b600060405180830381600087803b1580156120a757600080fd5b505af11580156120bb573d6000803e3d6000fd5b5050505060007322e7dd9b7c2708de833b880ef9804d3e31689fa69050835186511461211c576040517f08c379a000000000000000000000000000000000000000000000000000000000815260040161211390613a60565b60405180910390fd5b60008090505b86518110156121cb578173ffffffffffffffffffffffffffffffffffffffff166326d7092588838151811061215357fe5b602002602001015187848151811061216757fe5b60200260200101516040518363ffffffff1660e01b815260040161218c9291906138c1565b600060405180830381600087803b1580156121a657600080fd5b505af11580156121ba573d6000803e3d6000fd5b505050508080600101915050612122565b506001925050509695505050505050565b60006121e7826117b5565b9050919050565b600080828401905083811015612239576040517f08c379a0000000000000000000000000000000000000000000000000000000008152600401612230906139a0565b60405180910390fd5b8091505092915050565b600033905090565b600073ffffffffffffffffffffffffffffffffffffffff168373ffffffffffffffffffffffffffffffffffffffff1614156122bb576040517f08c379a00000000000000000000000000000000000000000000000000000000081526004016122b290613a40565b60405180910390fd5b600073ffffffffffffffffffffffffffffffffffffffff168273ffffffffffffffffffffffffffffffffffffffff16141561232b576040517f08c379a000000000000000000000000000000000000000000000000000000000815260040161232290613980565b60405180910390fd5b80600160008573ffffffffffffffffffffffffffffffffffffffff1673ffffffffffffffffffffffffffffffffffffffff16815260200190815260200160002060008473ffffffffffffffffffffffffffffffffffffffff1673ffffffffffffffffffffffffffffffffffffffff168152602001908152602001600020819055508173ffffffffffffffffffffffffffffffffffffffff168373ffffffffffffffffffffffffffffffffffffffff167f8c5be1e5ebec7d5bd14f71427d1e84f3dd0314c0f7b2291e5b200ac8c7c3b925836040516124099190613ac2565b60405180910390a3505050565b600073ffffffffffffffffffffffffffffffffffffffff168373ffffffffffffffffffffffffffffffffffffffff161415612486576040517f08c379a000000000000000000000000000000000000000000000000000000000815260040161247d90613a20565b60405180910390fd5b600073ffffffffffffffffffffffffffffffffffffffff168273ffffffffffffffffffffffffffffffffffffffff1614156124f6576040517f08c379a00000000000000000000000000000000000000000000000000000000081526004016124ed90613960565b60405180910390fd5b612501838383612b4c565b61256c81604051806060016040528060268152602001613d4d602691396000808773ffffffffffffffffffffffffffffffffffffffff1673ffffffffffffffffffffffffffffffffffffffff168152602001908152602001600020546126ab9092919063ffffffff16565b6000808573ffffffffffffffffffffffffffffffffffffffff1673ffffffffffffffffffffffffffffffffffffffff168152602001908152602001600020819055506125ff816000808573ffffffffffffffffffffffffffffffffffffffff1673ffffffffffffffffffffffffffffffffffffffff168152602001908152602001600020546121ee90919063ffffffff16565b6000808473ffffffffffffffffffffffffffffffffffffffff1673ffffffffffffffffffffffffffffffffffffffff168152602001908152602001600020819055508173ffffffffffffffffffffffffffffffffffffffff168373ffffffffffffffffffffffffffffffffffffffff167fddf252ad1be2c89b69c2b068fc378daa952ba7f163c4a11628f55a4df523b3ef8360405161269e9190613ac2565b60405180910390a3505050565b60008383111582906126f3576040517f08c379a00000000000000000000000000000000000000000000000000000000081526004016126ea919061389f565b60405180910390fd5b5060008385039050809150509392505050565b6000808314156127195760009050612770565b600082840290508284828161272a57fe5b041461276b576040517f08c379a0000000000000000000000000000000000000000000000000000000008152600401612762906139e0565b60405180910390fd5b809150505b92915050565b60006127b883836040518060400160405280601a81526020017f536166654d6174683a206469766973696f6e206279207a65726f000000000000815250612b51565b905092915050565b600061280283836040518060400160405280601e81526020017f536166654d6174683a207375627472616374696f6e206f766572666c6f7700008152506126ab565b905092915050565b600073ffffffffffffffffffffffffffffffffffffffff168273ffffffffffffffffffffffffffffffffffffffff16141561287a576040517f08c379a000000000000000000000000000000000000000000000000000000000815260040161287190613a80565b60405180910390fd5b61288660008383612b4c565b61289b816002546121ee90919063ffffffff16565b6002819055506128f2816000808573ffffffffffffffffffffffffffffffffffffffff1673ffffffffffffffffffffffffffffffffffffffff168152602001908152602001600020546121ee90919063ffffffff16565b6000808473ffffffffffffffffffffffffffffffffffffffff1673ffffffffffffffffffffffffffffffffffffffff168152602001908152602001600020819055508173ffffffffffffffffffffffffffffffffffffffff16600073ffffffffffffffffffffffffffffffffffffffff167fddf252ad1be2c89b69c2b068fc378daa952ba7f163c4a11628f55a4df523b3ef836040516129929190613ac2565b60405180910390a35050565b600073ffffffffffffffffffffffffffffffffffffffff168273ffffffffffffffffffffffffffffffffffffffff161415612a0e576040517f08c379a0000000000000000000000000000000000000000000000000000000008152600401612a0590613a00565b60405180910390fd5b612a1a82600083612b4c565b612a8581604051806060016040528060228152602001613d2b602291396000808673ffffffffffffffffffffffffffffffffffffffff1673ffffffffffffffffffffffffffffffffffffffff168152602001908152602001600020546126ab9092919063ffffffff16565b6000808473ffffffffffffffffffffffffffffffffffffffff1673ffffffffffffffffffffffffffffffffffffffff16815260200190815260200160002081905550612adc816002546127c090919063ffffffff16565b600281905550600073ffffffffffffffffffffffffffffffffffffffff168273ffffffffffffffffffffffffffffffffffffffff167fddf252ad1be2c89b69c2b068fc378daa952ba7f163c4a11628f55a4df523b3ef83604051612b409190613ac2565b60405180910390a35050565b505050565b60008083118290612b98576040517f08c379a0000000000000000000000000000000000000000000000000000000008152600401612b8f919061389f565b60405180910390fd5b506000838581612ba457fe5b049050809150509392505050565b6040518060c001604052806060815260200160608152602001606081526020016060815260200160008152602001600081525090565b600081359050612bf781613ce5565b92915050565b600081519050612c0c81613ce5565b92915050565b600082601f830112612c2357600080fd5b8135612c36612c3182613b25565b613af8565b91508181835260208401935060208101905083856020840282011115612c5b57600080fd5b60005b83811015612c8b5781612c718882612be8565b845260208401935060208301925050600181019050612c5e565b5050505092915050565b600082601f830112612ca657600080fd5b8135612cb9612cb482613b4d565b613af8565b9150818183526020840193506020810190508360005b83811015612cff5781358601612ce58882612d1e565b845260208401935060208301925050600181019050612ccf565b5050505092915050565b600081519050612d1881613cfc565b92915050565b600082601f830112612d2f57600080fd5b8135612d42612d3d82613b75565b613af8565b91508082526020830160208301858383011115612d5e57600080fd5b612d69838284613c92565b50505092915050565b600082601f830112612d8357600080fd5b8151612d96612d9182613b75565b613af8565b91508082526020830160208301858383011115612db257600080fd5b612dbd838284613ca1565b50505092915050565b600060608284031215612dd857600080fd5b612de26060613af8565b9050600082015167ffffffffffffffff811115612dfe57600080fd5b612e0a84828501612d72565b600083015250602082015167ffffffffffffffff811115612e2a57600080fd5b612e3684828501612d72565b6020830152506040612e4a84828501612bfd565b60408301525092915050565b600060608284031215612e6857600080fd5b612e726060613af8565b9050600082015167ffffffffffffffff811115612e8e57600080fd5b612e9a84828501612d72565b600083015250602082015167ffffffffffffffff811115612eba57600080fd5b612ec684828501612d72565b6020830152506040612eda84828501612bfd565b60408301525092915050565b600081359050612ef581613d13565b92915050565b600081519050612f0a81613d13565b92915050565b600060208284031215612f2257600080fd5b6000612f3084828501612be8565b91505092915050565b600060208284031215612f4b57600080fd5b6000612f5984828501612bfd565b91505092915050565b60008060408385031215612f7557600080fd5b6000612f8385828601612be8565b9250506020612f9485828601612be8565b9150509250929050565b600080600060608486031215612fb357600080fd5b6000612fc186828701612be8565b9350506020612fd286828701612be8565b9250506040612fe386828701612ee6565b9150509250925092565b6000806040838503121561300057600080fd5b600061300e85828601612be8565b925050602061301f85828601612ee6565b9150509250929050565b60008060008060008060c0878903121561304257600080fd5b600061305089828a01612be8565b965050602061306189828a01612ee6565b955050604087013567ffffffffffffffff81111561307e57600080fd5b61308a89828a01612d1e565b945050606087013567ffffffffffffffff8111156130a757600080fd5b6130b389828a01612c95565b935050608087013567ffffffffffffffff8111156130d057600080fd5b6130dc89828a01612d1e565b92505060a087013567ffffffffffffffff8111156130f957600080fd5b61310589828a01612c95565b9150509295509295509295565b6000806040838503121561312557600080fd5b600083013567ffffffffffffffff81111561313f57600080fd5b61314b85828601612c12565b925050602061315c85828601612ee6565b9150509250929050565b60006020828403121561317857600080fd5b600061318684828501612d09565b91505092915050565b6000602082840312156131a157600080fd5b600082015167ffffffffffffffff8111156131bb57600080fd5b6131c784828501612dc6565b91505092915050565b6000602082840312156131e257600080fd5b600082015167ffffffffffffffff8111156131fc57600080fd5b61320884828501612e56565b91505092915050565b60006020828403121561322357600080fd5b600061323184828501612ee6565b91505092915050565b60006020828403121561324c57600080fd5b600061325a84828501612efb565b91505092915050565b600061326f8383613319565b905092915050565b61328081613c5c565b82525050565b61328f81613c07565b82525050565b60006132a082613bb1565b6132aa8185613bd4565b9350836020820285016132bc85613ba1565b8060005b858110156132f857848403895281516132d98582613263565b94506132e483613bc7565b925060208a019950506001810190506132c0565b50829750879550505050505092915050565b61331381613c19565b82525050565b600061332482613bbc565b61332e8185613be5565b935061333e818560208601613ca1565b61334781613cd4565b840191505092915050565b600061335d82613bbc565b6133678185613bf6565b9350613377818560208601613ca1565b61338081613cd4565b840191505092915050565b6000613398602383613bf6565b91507f45524332303a207472616e7366657220746f20746865207a65726f206164647260008301527f65737300000000000000000000000000000000000000000000000000000000006020830152604082019050919050565b60006133fe602283613bf6565b91507f45524332303a20617070726f766520746f20746865207a65726f20616464726560008301527f73730000000000000000000000000000000000000000000000000000000000006020830152604082019050919050565b6000613464601b83613bf6565b91507f536166654d6174683a206164646974696f6e206f766572666c6f7700000000006000830152602082019050919050565b60006134a4601683613bf6565b91507f6e6f74206c6172676572207468616e20616d6f756e74000000000000000000006000830152602082019050919050565b60006134e4602183613bf6565b91507f536166654d6174683a206d756c7469706c69636174696f6e206f766572666c6f60008301527f77000000000000000000000000000000000000000000000000000000000000006020830152604082019050919050565b600061354a602183613bf6565b91507f45524332303a206275726e2066726f6d20746865207a65726f2061646472657360008301527f73000000000000000000000000000000000000000000000000000000000000006020830152604082019050919050565b60006135b0602583613bf6565b91507f45524332303a207472616e736665722066726f6d20746865207a65726f20616460008301527f64726573730000000000000000000000000000000000000000000000000000006020830152604082019050919050565b6000613616602483613bf6565b91507f45524332303a20617070726f76652066726f6d20746865207a65726f2061646460008301527f72657373000000000000000000000000000000000000000000000000000000006020830152604082019050919050565b600061367c604083613bf6565b91507f6f7264657244657461696c734964206c656e677468206d75737420626520736160008301527f6d65206173206f7264657244657461696c73436f6e74656e74206c656e6774686020830152604082019050919050565b60006136e2601f83613bf6565b91507f45524332303a206d696e7420746f20746865207a65726f2061646472657373006000830152602082019050919050565b600060c08301600083015184820360008601526137328282613319565b9150506020830151848203602086015261374c8282613319565b915050604083015184820360408601526137668282613319565b915050606083015184820360608601526137808282613295565b915050608083015161379560808601826137b3565b5060a08301516137a860a08601826137b3565b508091505092915050565b6137bc81613c45565b82525050565b6137cb81613c45565b82525050565b6137da81613c4f565b82525050565b60006020820190506137f56000830184613286565b92915050565b60006060820190506138106000830186613277565b61381d6020830185613286565b61382a60408301846137c2565b949350505050565b60006040820190506138476000830185613277565b61385460208301846137c2565b9392505050565b60006040820190506138706000830185613286565b61387d60208301846137c2565b9392505050565b6000602082019050613899600083018461330a565b92915050565b600060208201905081810360008301526138b98184613352565b905092915050565b600060408201905081810360008301526138db8185613352565b905081810360208301526138ef8184613352565b90509392505050565b600060a08201905081810360008301526139128188613352565b905081810360208301526139268187613352565b9050818103604083015261393a8186613352565b905061394960608301856137c2565b61395660808301846137c2565b9695505050505050565b600060208201905081810360008301526139798161338b565b9050919050565b60006020820190508181036000830152613999816133f1565b9050919050565b600060208201905081810360008301526139b981613457565b9050919050565b600060208201905081810360008301526139d981613497565b9050919050565b600060208201905081810360008301526139f9816134d7565b9050919050565b60006020820190508181036000830152613a198161353d565b9050919050565b60006020820190508181036000830152613a39816135a3565b9050919050565b60006020820190508181036000830152613a5981613609565b9050919050565b60006020820190508181036000830152613a798161366f565b9050919050565b60006020820190508181036000830152613a99816136d5565b9050919050565b60006020820190508181036000830152613aba8184613715565b905092915050565b6000602082019050613ad760008301846137c2565b92915050565b6000602082019050613af260008301846137d1565b92915050565b6000604051905081810181811067ffffffffffffffff82111715613b1b57600080fd5b8060405250919050565b600067ffffffffffffffff821115613b3c57600080fd5b602082029050602081019050919050565b600067ffffffffffffffff821115613b6457600080fd5b602082029050602081019050919050565b600067ffffffffffffffff821115613b8c57600080fd5b601f19601f8301169050602081019050919050565b6000819050602082019050919050565b600081519050919050565b600081519050919050565b6000602082019050919050565b600082825260208201905092915050565b600082825260208201905092915050565b600082825260208201905092915050565b6000613c1282613c25565b9050919050565b60008115159050919050565b600073ffffffffffffffffffffffffffffffffffffffff82169050919050565b6000819050919050565b600060ff82169050919050565b6000613c6782613c6e565b9050919050565b6000613c7982613c80565b9050919050565b6000613c8b82613c25565b9050919050565b82818337600083830152505050565b60005b83811015613cbf578082015181840152602081019050613ca4565b83811115613cce576000848401525b50505050565b6000601f19601f8301169050919050565b613cee81613c07565b8114613cf957600080fd5b50565b613d0581613c19565b8114613d1057600080fd5b50565b613d1c81613c45565b8114613d2757600080fd5b5056fe45524332303a206275726e20616d6f756e7420657863656564732062616c616e636545524332303a207472616e7366657220616d6f756e7420657863656564732062616c616e636545524332303a207472616e7366657220616d6f756e74206578636565647320616c6c6f77616e636545524332303a2064656372656173656420616c6c6f77616e63652062656c6f77207a65726fa26469706673582212209e2dd44d9be42acc16bb3e77effe024293495b500352f26ad045341682ec6e1764736f6c634300060a0033",
  "immutableReferences": {},
  "source": "// SPDX-License-Identifier: MIT\npragma solidity ^0.6.10;\npragma experimental ABIEncoderV2;\n\nimport \"../../access/ACL.sol\";\nimport \"./JJToken.sol\";\n\nimport \"./ERC20.sol\";\nimport \"./IERC20.sol\";\nimport \"../../math/SafeMath.sol\";\nimport \"../../data/Orders.sol\";\nimport \"../../data/OrderDetails.sol\";\n\n\ncontract Coupons is ERC20, ACL {\n    \n    mapping (address => mapping (address => uint)) public tokens; // mapping of token addresses to mapping of account balances (token=0 means Ether)\n\n    event OrderForUser(address tokenGet, uint amountGet, address tokenGive, uint amountGive, uint nonce, address maker, bytes32 indexed orderHash);\n    event TradeForUser(bytes32 indexed orderHash, uint amount, address give);\n    event Cancel(bytes32 indexed orderHash);\n    event Deposit(address token, address user, uint amount, uint balance);\n    event Withdraw(address token, address user, uint amount, uint balance);\n    event FundsMigrated(address user, address newContract);\n    \n    // storePercentage and platformPercentage\n    uint256 public storePercentage;\n    \n\n    struct Coupon {\n        string name;\n        string symbol;\n        string id;\n        string[] storeId;\n        uint256 expireTime;\n        uint256 issueTime;\n    }\n\n    event NewCoupon(string name ,string symbol, string id, string[] storeId, uint256 expireTime, uint256 issueTime);\n\n    constructor (string memory name, string memory symbol, string memory id, string[] memory storeId, uint256 expireTime, uint256 issueTime )\n        ERC20(name, symbol)\n        public\n    {\n        _mint(msg.sender, 0 * 10 ** uint(decimals()));\n        // begin recording message here.\n        // setAdmin(msg.sender);\n        coupons.push(Coupon(name, symbol ,id ,storeId ,expireTime,issueTime));\n        emit NewCoupon(name, symbol ,id ,storeId ,expireTime,issueTime);\n\n    }\n    Coupon[] public coupons;\n\n    function getInfo() public view returns (Coupon memory cp){\n        return coupons[0];\n    }\n\n    function getBalance(address userAddress) public view returns(uint256) {\n        return balanceOf(userAddress);\n    }\n\n    function getJJTokenBalance(address userAddress) public view returns(uint256) {\n        JJToken jToken = JJToken(JJTokenAddress);\n        return jToken.balanceOf(userAddress);\n    }\n    \n    function setStorePercentage(uint256 _storePercentage) onlyAdmin public returns(bool) {\n        uint256 total = 100;\n        require( _storePercentage < total);\n        storePercentage = _storePercentage;\n    }\n    \n    function withdraw(uint256 amount) public payable returns(address) {\n        require(getBalance(msg.sender) >= amount, \"not larger than amount\");\n        burn(msg.sender,amount);\n        JJToken jToken = JJToken(JJTokenAddress);\n        jToken.jjTransfer(msg.sender, amount.mul(storePercentage).div(100));\n        // \n        uint256 total = 100;\n        uint256 platformPercentage = total.sub(storePercentage);\n        jToken.jjTransfer(getFeeAddress(), amount.mul(platformPercentage).div(100));\n    }\n\n    function batchMint(address[] memory staff,uint256 amount) onlyEnterprise public {\n        for (uint i = 0; i < staff.length; i++) {\n            JJToken jToken = JJToken(JJTokenAddress);\n            jToken.transferFrom(msg.sender, address(this), amount);\n            _mint(staff[i], amount);\n        }\n    }\n\n    function issue(address enterpriseAddress,uint256 amount) onlyAdmin public{\n        JJToken jToken = JJToken(JJTokenAddress);\n        jToken.jjMint(enterpriseAddress, amount);\n    }\n\n    function mint(address staff, uint256 amount) onlyEnterprise public  {\n        JJToken jToken = JJToken(JJTokenAddress);\n        jToken.transferFrom(msg.sender, address(this), amount);\n        _mint(staff, amount);\n    }\n\n    function burn(address account, uint256 amount) onlyStore public  {\n        _burn(account, amount);\n    }\n\n    function couponTransfer(address recipient, uint256 amount,string memory _orderId, string[] memory _orderDetailId, string memory _orderContent, string[] memory _orderDetailContent) public virtual returns (bool) {\n        _transfer(msg.sender, recipient, amount);\n        // then record it!\n        Orders o = Orders(OrdersAddress);\n        o.appendOrder(_orderId,_orderContent);\n        OrderDetails od = OrderDetails(OrderDetailsAddress);\n        require(_orderDetailId.length == _orderDetailContent.length, \"orderDetailsId length must be same as orderDetailsContent length\");\n        for (uint i = 0; i < _orderDetailId.length; i++) {\n            od.appendOrderDetail(_orderDetailId[i],  _orderDetailContent[i]);\n        }\n        return true;\n    }\n\n    function couponRefund(address recipient, uint256 amount,string memory _orderId, string[] memory _orderDetailId, string memory _orderContent, string[] memory _orderDetailContent) onlyStore public virtual returns (bool) {\n        _transfer(msg.sender, recipient, amount);\n        Orders o = Orders(OrdersAddress);\n        o.appendOrder(_orderId,_orderContent);\n        OrderDetails od = OrderDetails(OrderDetailsAddress);\n        require(_orderDetailId.length == _orderDetailContent.length, \"orderDetailsId length must be same as orderDetailsContent length\");\n        for (uint i = 0; i < _orderDetailId.length; i++) {\n            od.appendOrderDetail(_orderDetailId[i],  _orderDetailContent[i]);\n        }\n        return true;\n    }\n}\n",
  "sourcePath": "/Users/lu/Desktop/ningbojj/JJToken/contracts/token/ERC20/Coupons.sol",
  "compiler": {
    "name": "solc",
    "version": "0.6.10+commit.00c0fcaf.Emscripten.clang"
  },
  "schemaVersion": "3.2.3",
  "updatedAt": "2020-08-28T07:02:26.783Z",
  "devdoc": {
    "methods": {
      "allowance(address,address)": {
        "details": "See {IERC20-allowance}."
      },
      "approve(address,uint256)": {
        "details": "See {IERC20-approve}. Requirements: - `spender` cannot be the zero address."
      },
      "balanceOf(address)": {
        "details": "See {IERC20-balanceOf}."
      },
      "decimals()": {
        "details": "Returns the number of decimals used to get its user representation. For example, if `decimals` equals `2`, a balance of `505` tokens should be displayed to a user as `5,05` (`505 / 10 ** 2`). Tokens usually opt for a value of 18, imitating the relationship between Ether and Wei. This is the value {ERC20} uses, unless {_setupDecimals} is called. NOTE: This information is only used for _display_ purposes: it in no way affects any of the arithmetic of the contract, including {IERC20-balanceOf} and {IERC20-transfer}."
      },
      "decreaseAllowance(address,uint256)": {
        "details": "Atomically decreases the allowance granted to `spender` by the caller. This is an alternative to {approve} that can be used as a mitigation for problems described in {IERC20-approve}. Emits an {Approval} event indicating the updated allowance. Requirements: - `spender` cannot be the zero address. - `spender` must have allowance for the caller of at least `subtractedValue`."
      },
      "increaseAllowance(address,uint256)": {
        "details": "Atomically increases the allowance granted to `spender` by the caller. This is an alternative to {approve} that can be used as a mitigation for problems described in {IERC20-approve}. Emits an {Approval} event indicating the updated allowance. Requirements: - `spender` cannot be the zero address."
      },
      "name()": {
        "details": "Returns the name of the token."
      },
      "symbol()": {
        "details": "Returns the symbol of the token, usually a shorter version of the name."
      },
      "totalSupply()": {
        "details": "See {IERC20-totalSupply}."
      },
      "transfer(address,uint256)": {
        "details": "See {IERC20-transfer}. Requirements: - `recipient` cannot be the zero address. - the caller must have a balance of at least `amount`."
      },
      "transferFrom(address,address,uint256)": {
        "details": "See {IERC20-transferFrom}. Emits an {Approval} event indicating the updated allowance. This is not required by the EIP. See the note at the beginning of {ERC20}; Requirements: - `sender` and `recipient` cannot be the zero address. - `sender` must have a balance of at least `amount`. - the caller must have allowance for ``sender``'s tokens of at least `amount`."
      }
    }
  },
  "userdoc": {
    "methods": {}
  }
}