{
  "contractName": "JJToken",
  "abi": [
    {
      "inputs": [
        {
          "internalType": "string",
          "name": "name",
          "type": "string"
        },
        {
          "internalType": "string",
          "name": "symbol",
          "type": "string"
        }
      ],
      "stateMutability": "nonpayable",
      "type": "constructor"
    },
    {
      "anonymous": false,
      "inputs": [
        {
          "indexed": true,
          "internalType": "address",
          "name": "owner",
          "type": "address"
        },
        {
          "indexed": true,
          "internalType": "address",
          "name": "spender",
          "type": "address"
        },
        {
          "indexed": false,
          "internalType": "uint256",
          "name": "value",
          "type": "uint256"
        }
      ],
      "name": "Approval",
      "type": "event"
    },
    {
      "anonymous": false,
      "inputs": [
        {
          "indexed": true,
          "internalType": "address",
          "name": "from",
          "type": "address"
        },
        {
          "indexed": true,
          "internalType": "address",
          "name": "to",
          "type": "address"
        },
        {
          "indexed": false,
          "internalType": "uint256",
          "name": "value",
          "type": "uint256"
        }
      ],
      "name": "Transfer",
      "type": "event"
    },
    {
      "inputs": [
        {
          "internalType": "address",
          "name": "owner",
          "type": "address"
        },
        {
          "internalType": "address",
          "name": "spender",
          "type": "address"
        }
      ],
      "name": "allowance",
      "outputs": [
        {
          "internalType": "uint256",
          "name": "",
          "type": "uint256"
        }
      ],
      "stateMutability": "view",
      "type": "function"
    },
    {
      "inputs": [
        {
          "internalType": "address",
          "name": "spender",
          "type": "address"
        },
        {
          "internalType": "uint256",
          "name": "amount",
          "type": "uint256"
        }
      ],
      "name": "approve",
      "outputs": [
        {
          "internalType": "bool",
          "name": "",
          "type": "bool"
        }
      ],
      "stateMutability": "nonpayable",
      "type": "function"
    },
    {
      "inputs": [
        {
          "internalType": "address",
          "name": "account",
          "type": "address"
        }
      ],
      "name": "balanceOf",
      "outputs": [
        {
          "internalType": "uint256",
          "name": "",
          "type": "uint256"
        }
      ],
      "stateMutability": "view",
      "type": "function"
    },
    {
      "inputs": [],
      "name": "decimals",
      "outputs": [
        {
          "internalType": "uint8",
          "name": "",
          "type": "uint8"
        }
      ],
      "stateMutability": "view",
      "type": "function"
    },
    {
      "inputs": [
        {
          "internalType": "address",
          "name": "spender",
          "type": "address"
        },
        {
          "internalType": "uint256",
          "name": "subtractedValue",
          "type": "uint256"
        }
      ],
      "name": "decreaseAllowance",
      "outputs": [
        {
          "internalType": "bool",
          "name": "",
          "type": "bool"
        }
      ],
      "stateMutability": "nonpayable",
      "type": "function"
    },
    {
      "inputs": [],
      "name": "getFeeAddress",
      "outputs": [
        {
          "internalType": "address",
          "name": "fAddress",
          "type": "address"
        }
      ],
      "stateMutability": "view",
      "type": "function"
    },
    {
      "inputs": [
        {
          "internalType": "address",
          "name": "spender",
          "type": "address"
        },
        {
          "internalType": "uint256",
          "name": "addedValue",
          "type": "uint256"
        }
      ],
      "name": "increaseAllowance",
      "outputs": [
        {
          "internalType": "bool",
          "name": "",
          "type": "bool"
        }
      ],
      "stateMutability": "nonpayable",
      "type": "function"
    },
    {
      "inputs": [],
      "name": "name",
      "outputs": [
        {
          "internalType": "string",
          "name": "",
          "type": "string"
        }
      ],
      "stateMutability": "view",
      "type": "function"
    },
    {
      "inputs": [],
      "name": "symbol",
      "outputs": [
        {
          "internalType": "string",
          "name": "",
          "type": "string"
        }
      ],
      "stateMutability": "view",
      "type": "function"
    },
    {
      "inputs": [],
      "name": "totalSupply",
      "outputs": [
        {
          "internalType": "uint256",
          "name": "",
          "type": "uint256"
        }
      ],
      "stateMutability": "view",
      "type": "function"
    },
    {
      "inputs": [
        {
          "internalType": "address",
          "name": "recipient",
          "type": "address"
        },
        {
          "internalType": "uint256",
          "name": "amount",
          "type": "uint256"
        }
      ],
      "name": "transfer",
      "outputs": [
        {
          "internalType": "bool",
          "name": "",
          "type": "bool"
        }
      ],
      "stateMutability": "nonpayable",
      "type": "function"
    },
    {
      "inputs": [
        {
          "internalType": "address",
          "name": "sender",
          "type": "address"
        },
        {
          "internalType": "address",
          "name": "recipient",
          "type": "address"
        },
        {
          "internalType": "uint256",
          "name": "amount",
          "type": "uint256"
        }
      ],
      "name": "transferFrom",
      "outputs": [
        {
          "internalType": "bool",
          "name": "",
          "type": "bool"
        }
      ],
      "stateMutability": "nonpayable",
      "type": "function"
    },
    {
      "inputs": [
        {
          "internalType": "address",
          "name": "userAddress",
          "type": "address"
        }
      ],
      "name": "jjBalance",
      "outputs": [
        {
          "internalType": "uint256",
          "name": "",
          "type": "uint256"
        }
      ],
      "stateMutability": "view",
      "type": "function"
    },
    {
      "inputs": [
        {
          "internalType": "address",
          "name": "enterprise",
          "type": "address"
        },
        {
          "internalType": "uint256",
          "name": "amount",
          "type": "uint256"
        }
      ],
      "name": "jjMint",
      "outputs": [],
      "stateMutability": "nonpayable",
      "type": "function"
    },
    {
      "inputs": [
        {
          "internalType": "address",
          "name": "account",
          "type": "address"
        },
        {
          "internalType": "uint256",
          "name": "amount",
          "type": "uint256"
        }
      ],
      "name": "jjBurn",
      "outputs": [],
      "stateMutability": "nonpayable",
      "type": "function"
    },
    {
      "inputs": [
        {
          "internalType": "address",
          "name": "tokenAddress",
          "type": "address"
        },
        {
          "internalType": "uint256",
          "name": "amount",
          "type": "uint256"
        }
      ],
      "name": "jjApproveTo",
      "outputs": [
        {
          "internalType": "bool",
          "name": "",
          "type": "bool"
        }
      ],
      "stateMutability": "nonpayable",
      "type": "function"
    },
    {
      "inputs": [
        {
          "internalType": "address",
          "name": "recipient",
          "type": "address"
        },
        {
          "internalType": "uint256",
          "name": "amount",
          "type": "uint256"
        }
      ],
      "name": "jjTransfer",
      "outputs": [
        {
          "internalType": "bool",
          "name": "",
          "type": "bool"
        }
      ],
      "stateMutability": "nonpayable",
      "type": "function"
    }
  ],
  "bytecode": "0x60806040523480156200001157600080fd5b5060405162001f8c38038062001f8c83398181016040528101906200003791906200019c565b818181600390805190602001906200005192919062000091565b5080600490805190602001906200006a92919062000091565b506012600560006101000a81548160ff021916908360ff16021790555050505050620002a0565b828054600181600116156101000203166002900490600052602060002090601f016020900481019282601f10620000d457805160ff191683800117855562000105565b8280016001018555821562000105579182015b8281111562000104578251825591602001919060010190620000e7565b5b50905062000114919062000118565b5090565b6200013d91905b80821115620001395760008160009055506001016200011f565b5090565b90565b600082601f8301126200015257600080fd5b81516200016962000163826200023d565b6200020f565b915080825260208301602083018583830111156200018657600080fd5b620001938382846200026a565b50505092915050565b60008060408385031215620001b057600080fd5b600083015167ffffffffffffffff811115620001cb57600080fd5b620001d98582860162000140565b925050602083015167ffffffffffffffff811115620001f757600080fd5b620002058582860162000140565b9150509250929050565b6000604051905081810181811067ffffffffffffffff821117156200023357600080fd5b8060405250919050565b600067ffffffffffffffff8211156200025557600080fd5b601f19601f8301169050602081019050919050565b60005b838110156200028a5780820151818401526020810190506200026d565b838111156200029a576000848401525b50505050565b611cdc80620002b06000396000f3fe608060405234801561001057600080fd5b506004361061010b5760003560e01c80635c90b770116100a2578063a457c2d711610071578063a457c2d7146102ce578063a9059cbb146102fe578063dd62ed3e1461032e578063ef4d18341461035e578063f8a779ff1461038e5761010b565b80635c90b7701461023457806370a082311461025057806395d89b4114610280578063989147a01461029e5761010b565b806323b872dd116100de57806323b872dd14610198578063313ce567146101c857806339509351146101e65780634e7ceacb146102165761010b565b806306fdde0314610110578063095ea7b31461012e57806318160ddd1461015e5780631c9a53b51461017c575b600080fd5b6101186103be565b604051610125919061199d565b60405180910390f35b610148600480360381019061014391906115ce565b610460565b6040516101559190611982565b60405180910390f35b61016661047e565b6040516101739190611a9f565b60405180910390f35b610196600480360381019061019191906115ce565b610488565b005b6101b260048036038101906101ad919061157f565b610496565b6040516101bf9190611982565b60405180910390f35b6101d061056f565b6040516101dd9190611aba565b60405180910390f35b61020060048036038101906101fb91906115ce565b610586565b60405161020d9190611982565b60405180910390f35b61021e610639565b60405161022b9190611967565b60405180910390f35b61024e600480360381019061024991906115ce565b6106d7565b005b61026a600480360381019061026591906114f1565b6106e5565b6040516102779190611a9f565b60405180910390f35b61028861072d565b604051610295919061199d565b60405180910390f35b6102b860048036038101906102b391906115ce565b6107cf565b6040516102c59190611982565b60405180910390f35b6102e860048036038101906102e391906115ce565b610975565b6040516102f59190611982565b60405180910390f35b610318600480360381019061031391906115ce565b610a42565b6040516103259190611982565b60405180910390f35b61034860048036038101906103439190611543565b610a60565b6040516103559190611a9f565b60405180910390f35b610378600480360381019061037391906114f1565b610ae7565b6040516103859190611a9f565b60405180910390f35b6103a860048036038101906103a391906115ce565b610af9565b6040516103b59190611982565b60405180910390f35b606060038054600181600116156101000203166002900480601f0160208091040260200160405190810160405280929190818152602001828054600181600116156101000203166002900480156104565780601f1061042b57610100808354040283529160200191610456565b820191906000526020600020905b81548152906001019060200180831161043957829003601f168201915b5050505050905090565b600061047461046d610b10565b8484610b18565b6001905092915050565b6000600254905090565b6104928282610ce3565b5050565b60006104a3848484610e77565b610564846104af610b10565b61055f85604051806060016040528060288152602001611c5a60289139600160008b73ffffffffffffffffffffffffffffffffffffffff1673ffffffffffffffffffffffffffffffffffffffff1681526020019081526020016000206000610515610b10565b73ffffffffffffffffffffffffffffffffffffffff1673ffffffffffffffffffffffffffffffffffffffff1681526020019081526020016000205461110c9092919063ffffffff16565b610b18565b600190509392505050565b6000600560009054906101000a900460ff16905090565b600061062f610593610b10565b8461062a85600160006105a4610b10565b73ffffffffffffffffffffffffffffffffffffffff1673ffffffffffffffffffffffffffffffffffffffff16815260200190815260200160002060008973ffffffffffffffffffffffffffffffffffffffff1673ffffffffffffffffffffffffffffffffffffffff1681526020019081526020016000205461116790919063ffffffff16565b610b18565b6001905092915050565b60008073c8e1e64287c60c8256ed6ded0d5860cebd91684390508073ffffffffffffffffffffffffffffffffffffffff1663412753586040518163ffffffff1660e01b815260040160206040518083038186803b15801561069957600080fd5b505afa1580156106ad573d6000803e3d6000fd5b505050506040513d601f19601f820116820180604052508101906106d1919061151a565b91505090565b6106e182826111bc565b5050565b60008060008373ffffffffffffffffffffffffffffffffffffffff1673ffffffffffffffffffffffffffffffffffffffff168152602001908152602001600020549050919050565b606060048054600181600116156101000203166002900480601f0160208091040260200160405190810160405280929190818152602001828054600181600116156101000203166002900480156107c55780601f1061079a576101008083540402835291602001916107c5565b820191906000526020600020905b8154815290600101906020018083116107a857829003601f168201915b5050505050905090565b60008073c8e1e64287c60c8256ed6ded0d5860cebd9168439050600080905060008090505b8273ffffffffffffffffffffffffffffffffffffffff1663e1984c306040518163ffffffff1660e01b815260040160206040518083038186803b15801561083a57600080fd5b505afa15801561084e573d6000803e3d6000fd5b505050506040513d601f19601f82011682018060405250810190610872919061164b565b811015610950578273ffffffffffffffffffffffffffffffffffffffff16632182a562826040518263ffffffff1660e01b81526004016108b29190611a9f565b60006040518083038186803b1580156108ca57600080fd5b505afa1580156108de573d6000803e3d6000fd5b505050506040513d6000823e3d601f19601f82011682018060405250810190610907919061160a565b6040015173ffffffffffffffffffffffffffffffffffffffff163373ffffffffffffffffffffffffffffffffffffffff16141561094357600191505b80806001019150506107f4565b506001811461095e57600080fd5b610969338686610b18565b60019250505092915050565b6000610a38610982610b10565b84610a3385604051806060016040528060258152602001611c8260259139600160006109ac610b10565b73ffffffffffffffffffffffffffffffffffffffff1673ffffffffffffffffffffffffffffffffffffffff16815260200190815260200160002060008a73ffffffffffffffffffffffffffffffffffffffff1673ffffffffffffffffffffffffffffffffffffffff1681526020019081526020016000205461110c9092919063ffffffff16565b610b18565b6001905092915050565b6000610a56610a4f610b10565b8484610e77565b6001905092915050565b6000600160008473ffffffffffffffffffffffffffffffffffffffff1673ffffffffffffffffffffffffffffffffffffffff16815260200190815260200160002060008373ffffffffffffffffffffffffffffffffffffffff1673ffffffffffffffffffffffffffffffffffffffff16815260200190815260200160002054905092915050565b6000610af2826106e5565b9050919050565b6000610b06338484610e77565b6001905092915050565b600033905090565b600073ffffffffffffffffffffffffffffffffffffffff168373ffffffffffffffffffffffffffffffffffffffff161415610b88576040517f08c379a0000000000000000000000000000000000000000000000000000000008152600401610b7f90611a5f565b60405180910390fd5b600073ffffffffffffffffffffffffffffffffffffffff168273ffffffffffffffffffffffffffffffffffffffff161415610bf8576040517f08c379a0000000000000000000000000000000000000000000000000000000008152600401610bef906119df565b60405180910390fd5b80600160008573ffffffffffffffffffffffffffffffffffffffff1673ffffffffffffffffffffffffffffffffffffffff16815260200190815260200160002060008473ffffffffffffffffffffffffffffffffffffffff1673ffffffffffffffffffffffffffffffffffffffff168152602001908152602001600020819055508173ffffffffffffffffffffffffffffffffffffffff168373ffffffffffffffffffffffffffffffffffffffff167f8c5be1e5ebec7d5bd14f71427d1e84f3dd0314c0f7b2291e5b200ac8c7c3b92583604051610cd69190611a9f565b60405180910390a3505050565b600073ffffffffffffffffffffffffffffffffffffffff168273ffffffffffffffffffffffffffffffffffffffff161415610d53576040517f08c379a0000000000000000000000000000000000000000000000000000000008152600401610d4a90611a7f565b60405180910390fd5b610d5f6000838361136a565b610d748160025461116790919063ffffffff16565b600281905550610dcb816000808573ffffffffffffffffffffffffffffffffffffffff1673ffffffffffffffffffffffffffffffffffffffff1681526020019081526020016000205461116790919063ffffffff16565b6000808473ffffffffffffffffffffffffffffffffffffffff1673ffffffffffffffffffffffffffffffffffffffff168152602001908152602001600020819055508173ffffffffffffffffffffffffffffffffffffffff16600073ffffffffffffffffffffffffffffffffffffffff167fddf252ad1be2c89b69c2b068fc378daa952ba7f163c4a11628f55a4df523b3ef83604051610e6b9190611a9f565b60405180910390a35050565b600073ffffffffffffffffffffffffffffffffffffffff168373ffffffffffffffffffffffffffffffffffffffff161415610ee7576040517f08c379a0000000000000000000000000000000000000000000000000000000008152600401610ede90611a3f565b60405180910390fd5b600073ffffffffffffffffffffffffffffffffffffffff168273ffffffffffffffffffffffffffffffffffffffff161415610f57576040517f08c379a0000000000000000000000000000000000000000000000000000000008152600401610f4e906119bf565b60405180910390fd5b610f6283838361136a565b610fcd81604051806060016040528060268152602001611c34602691396000808773ffffffffffffffffffffffffffffffffffffffff1673ffffffffffffffffffffffffffffffffffffffff1681526020019081526020016000205461110c9092919063ffffffff16565b6000808573ffffffffffffffffffffffffffffffffffffffff1673ffffffffffffffffffffffffffffffffffffffff16815260200190815260200160002081905550611060816000808573ffffffffffffffffffffffffffffffffffffffff1673ffffffffffffffffffffffffffffffffffffffff1681526020019081526020016000205461116790919063ffffffff16565b6000808473ffffffffffffffffffffffffffffffffffffffff1673ffffffffffffffffffffffffffffffffffffffff168152602001908152602001600020819055508173ffffffffffffffffffffffffffffffffffffffff168373ffffffffffffffffffffffffffffffffffffffff167fddf252ad1be2c89b69c2b068fc378daa952ba7f163c4a11628f55a4df523b3ef836040516110ff9190611a9f565b60405180910390a3505050565b6000838311158290611154576040517f08c379a000000000000000000000000000000000000000000000000000000000815260040161114b919061199d565b60405180910390fd5b5060008385039050809150509392505050565b6000808284019050838110156111b2576040517f08c379a00000000000000000000000000000000000000000000000000000000081526004016111a9906119ff565b60405180910390fd5b8091505092915050565b600073ffffffffffffffffffffffffffffffffffffffff168273ffffffffffffffffffffffffffffffffffffffff16141561122c576040517f08c379a000000000000000000000000000000000000000000000000000000000815260040161122390611a1f565b60405180910390fd5b6112388260008361136a565b6112a381604051806060016040528060228152602001611c12602291396000808673ffffffffffffffffffffffffffffffffffffffff1673ffffffffffffffffffffffffffffffffffffffff1681526020019081526020016000205461110c9092919063ffffffff16565b6000808473ffffffffffffffffffffffffffffffffffffffff1673ffffffffffffffffffffffffffffffffffffffff168152602001908152602001600020819055506112fa8160025461136f90919063ffffffff16565b600281905550600073ffffffffffffffffffffffffffffffffffffffff168273ffffffffffffffffffffffffffffffffffffffff167fddf252ad1be2c89b69c2b068fc378daa952ba7f163c4a11628f55a4df523b3ef8360405161135e9190611a9f565b60405180910390a35050565b505050565b60006113b183836040518060400160405280601e81526020017f536166654d6174683a207375627472616374696f6e206f766572666c6f77000081525061110c565b905092915050565b6000813590506113c881611be3565b92915050565b6000815190506113dd81611be3565b92915050565b600082601f8301126113f457600080fd5b815161140761140282611b02565b611ad5565b9150808252602083016020830185838301111561142357600080fd5b61142e838284611b9f565b50505092915050565b60006060828403121561144957600080fd5b6114536060611ad5565b9050600082015167ffffffffffffffff81111561146f57600080fd5b61147b848285016113e3565b600083015250602082015167ffffffffffffffff81111561149b57600080fd5b6114a7848285016113e3565b60208301525060406114bb848285016113ce565b60408301525092915050565b6000813590506114d681611bfa565b92915050565b6000815190506114eb81611bfa565b92915050565b60006020828403121561150357600080fd5b6000611511848285016113b9565b91505092915050565b60006020828403121561152c57600080fd5b600061153a848285016113ce565b91505092915050565b6000806040838503121561155657600080fd5b6000611564858286016113b9565b9250506020611575858286016113b9565b9150509250929050565b60008060006060848603121561159457600080fd5b60006115a2868287016113b9565b93505060206115b3868287016113b9565b92505060406115c4868287016114c7565b9150509250925092565b600080604083850312156115e157600080fd5b60006115ef858286016113b9565b9250506020611600858286016114c7565b9150509250929050565b60006020828403121561161c57600080fd5b600082015167ffffffffffffffff81111561163657600080fd5b61164284828501611437565b91505092915050565b60006020828403121561165d57600080fd5b600061166b848285016114dc565b91505092915050565b61167d81611b4a565b82525050565b61168c81611b5c565b82525050565b600061169d82611b2e565b6116a78185611b39565b93506116b7818560208601611b9f565b6116c081611bd2565b840191505092915050565b60006116d8602383611b39565b91507f45524332303a207472616e7366657220746f20746865207a65726f206164647260008301527f65737300000000000000000000000000000000000000000000000000000000006020830152604082019050919050565b600061173e602283611b39565b91507f45524332303a20617070726f766520746f20746865207a65726f20616464726560008301527f73730000000000000000000000000000000000000000000000000000000000006020830152604082019050919050565b60006117a4601b83611b39565b91507f536166654d6174683a206164646974696f6e206f766572666c6f7700000000006000830152602082019050919050565b60006117e4602183611b39565b91507f45524332303a206275726e2066726f6d20746865207a65726f2061646472657360008301527f73000000000000000000000000000000000000000000000000000000000000006020830152604082019050919050565b600061184a602583611b39565b91507f45524332303a207472616e736665722066726f6d20746865207a65726f20616460008301527f64726573730000000000000000000000000000000000000000000000000000006020830152604082019050919050565b60006118b0602483611b39565b91507f45524332303a20617070726f76652066726f6d20746865207a65726f2061646460008301527f72657373000000000000000000000000000000000000000000000000000000006020830152604082019050919050565b6000611916601f83611b39565b91507f45524332303a206d696e7420746f20746865207a65726f2061646472657373006000830152602082019050919050565b61195281611b88565b82525050565b61196181611b92565b82525050565b600060208201905061197c6000830184611674565b92915050565b60006020820190506119976000830184611683565b92915050565b600060208201905081810360008301526119b78184611692565b905092915050565b600060208201905081810360008301526119d8816116cb565b9050919050565b600060208201905081810360008301526119f881611731565b9050919050565b60006020820190508181036000830152611a1881611797565b9050919050565b60006020820190508181036000830152611a38816117d7565b9050919050565b60006020820190508181036000830152611a588161183d565b9050919050565b60006020820190508181036000830152611a78816118a3565b9050919050565b60006020820190508181036000830152611a9881611909565b9050919050565b6000602082019050611ab46000830184611949565b92915050565b6000602082019050611acf6000830184611958565b92915050565b6000604051905081810181811067ffffffffffffffff82111715611af857600080fd5b8060405250919050565b600067ffffffffffffffff821115611b1957600080fd5b601f19601f8301169050602081019050919050565b600081519050919050565b600082825260208201905092915050565b6000611b5582611b68565b9050919050565b60008115159050919050565b600073ffffffffffffffffffffffffffffffffffffffff82169050919050565b6000819050919050565b600060ff82169050919050565b60005b83811015611bbd578082015181840152602081019050611ba2565b83811115611bcc576000848401525b50505050565b6000601f19601f8301169050919050565b611bec81611b4a565b8114611bf757600080fd5b50565b611c0381611b88565b8114611c0e57600080fd5b5056fe45524332303a206275726e20616d6f756e7420657863656564732062616c616e636545524332303a207472616e7366657220616d6f756e7420657863656564732062616c616e636545524332303a207472616e7366657220616d6f756e74206578636565647320616c6c6f77616e636545524332303a2064656372656173656420616c6c6f77616e63652062656c6f77207a65726fa26469706673582212209a65ca73c05a8ac321bf5a600392da3518d9d3276d891c032d4cbc095ef17a4d64736f6c634300060a0033",
  "immutableReferences": {},
  "source": "// SPDX-License-Identifier: MIT\npragma solidity ^0.6.10;\npragma experimental ABIEncoderV2;\n\nimport \"../../access/ACL.sol\";\n\n\nimport \"./ERC20.sol\";\nimport \"./IERC20.sol\";\nimport \"../../math/SafeMath.sol\";\n\n\ncontract JJToken is ERC20, ACL {\n\n    constructor(string memory name, string memory symbol)\n        ERC20(name, symbol)\n        public\n    {}\n    \n\n    function jjBalance(address userAddress) public view returns(uint256) {\n        return balanceOf(userAddress);\n    }\n\n    function jjMint(address enterprise, uint256 amount) public  {\n        _mint(enterprise, amount);\n    }\n\n\n    function jjBurn(address account, uint256 amount) public  {\n        _burn(account, amount);\n    }\n\n    function jjApproveTo(address tokenAddress, uint256 amount) onlyEnterprise public returns (bool) {\n        _approve(msg.sender, tokenAddress, amount);\n        return true;\n    }\n\n    function jjTransfer(address recipient, uint256 amount) public returns (bool) {\n        _transfer(msg.sender, recipient, amount);\n        return true;\n    }\n}\n",
  "sourcePath": "/Users/lu/Desktop/ningbojj/JJToken/contracts/token/ERC20/JJToken.sol",
  "compiler": {
    "name": "solc",
    "version": "0.6.10+commit.00c0fcaf.Emscripten.clang"
  },
  "schemaVersion": "3.2.3",
  "updatedAt": "2020-08-28T07:02:26.859Z",
  "devdoc": {
    "methods": {
      "allowance(address,address)": {
        "details": "See {IERC20-allowance}."
      },
      "approve(address,uint256)": {
        "details": "See {IERC20-approve}. Requirements: - `spender` cannot be the zero address."
      },
      "balanceOf(address)": {
        "details": "See {IERC20-balanceOf}."
      },
      "decimals()": {
        "details": "Returns the number of decimals used to get its user representation. For example, if `decimals` equals `2`, a balance of `505` tokens should be displayed to a user as `5,05` (`505 / 10 ** 2`). Tokens usually opt for a value of 18, imitating the relationship between Ether and Wei. This is the value {ERC20} uses, unless {_setupDecimals} is called. NOTE: This information is only used for _display_ purposes: it in no way affects any of the arithmetic of the contract, including {IERC20-balanceOf} and {IERC20-transfer}."
      },
      "decreaseAllowance(address,uint256)": {
        "details": "Atomically decreases the allowance granted to `spender` by the caller. This is an alternative to {approve} that can be used as a mitigation for problems described in {IERC20-approve}. Emits an {Approval} event indicating the updated allowance. Requirements: - `spender` cannot be the zero address. - `spender` must have allowance for the caller of at least `subtractedValue`."
      },
      "increaseAllowance(address,uint256)": {
        "details": "Atomically increases the allowance granted to `spender` by the caller. This is an alternative to {approve} that can be used as a mitigation for problems described in {IERC20-approve}. Emits an {Approval} event indicating the updated allowance. Requirements: - `spender` cannot be the zero address."
      },
      "name()": {
        "details": "Returns the name of the token."
      },
      "symbol()": {
        "details": "Returns the symbol of the token, usually a shorter version of the name."
      },
      "totalSupply()": {
        "details": "See {IERC20-totalSupply}."
      },
      "transfer(address,uint256)": {
        "details": "See {IERC20-transfer}. Requirements: - `recipient` cannot be the zero address. - the caller must have a balance of at least `amount`."
      },
      "transferFrom(address,address,uint256)": {
        "details": "See {IERC20-transferFrom}. Emits an {Approval} event indicating the updated allowance. This is not required by the EIP. See the note at the beginning of {ERC20}; Requirements: - `sender` and `recipient` cannot be the zero address. - `sender` must have a balance of at least `amount`. - the caller must have allowance for ``sender``'s tokens of at least `amount`."
      }
    }
  },
  "userdoc": {
    "methods": {}
  }
}