{
  "contractName": "OrderDetails",
  "abi": [
    {
      "anonymous": false,
      "inputs": [
        {
          "indexed": false,
          "internalType": "address",
          "name": "newContract",
          "type": "address"
        }
      ],
      "name": "ContractUpgrade",
      "type": "event"
    },
    {
      "anonymous": false,
      "inputs": [
        {
          "indexed": false,
          "internalType": "string",
          "name": "orderId",
          "type": "string"
        }
      ],
      "name": "OrderDetailDelete",
      "type": "event"
    },
    {
      "anonymous": false,
      "inputs": [
        {
          "indexed": false,
          "internalType": "string",
          "name": "orderDetailId",
          "type": "string"
        },
        {
          "indexed": false,
          "internalType": "string",
          "name": "orderDetailContent",
          "type": "string"
        }
      ],
      "name": "OrderDetailEvent",
      "type": "event"
    },
    {
      "inputs": [],
      "name": "getFeeAddress",
      "outputs": [
        {
          "internalType": "address",
          "name": "fAddress",
          "type": "address"
        }
      ],
      "stateMutability": "view",
      "type": "function"
    },
    {
      "inputs": [
        {
          "internalType": "uint256",
          "name": "",
          "type": "uint256"
        }
      ],
      "name": "orderDetails",
      "outputs": [
        {
          "internalType": "string",
          "name": "orderDetailId",
          "type": "string"
        },
        {
          "internalType": "string",
          "name": "orderDetailContent",
          "type": "string"
        }
      ],
      "stateMutability": "view",
      "type": "function"
    },
    {
      "inputs": [
        {
          "internalType": "string",
          "name": "_orderDetailId",
          "type": "string"
        },
        {
          "internalType": "string",
          "name": "_orderDetailContent",
          "type": "string"
        }
      ],
      "name": "appendOrderDetail",
      "outputs": [],
      "stateMutability": "nonpayable",
      "type": "function"
    },
    {
      "inputs": [
        {
          "internalType": "string",
          "name": "_orderDetailId",
          "type": "string"
        }
      ],
      "name": "getOrderDetailById",
      "outputs": [
        {
          "components": [
            {
              "internalType": "string",
              "name": "orderDetailId",
              "type": "string"
            },
            {
              "internalType": "string",
              "name": "orderDetailContent",
              "type": "string"
            }
          ],
          "internalType": "struct OrderDetails.orderDetail",
          "name": "od",
          "type": "tuple"
        }
      ],
      "stateMutability": "view",
      "type": "function"
    },
    {
      "inputs": [],
      "name": "orderDetailsCount",
      "outputs": [
        {
          "internalType": "uint256",
          "name": "odc",
          "type": "uint256"
        }
      ],
      "stateMutability": "view",
      "type": "function"
    },
    {
      "inputs": [
        {
          "internalType": "string",
          "name": "_orderDetailId",
          "type": "string"
        }
      ],
      "name": "deleteOrderDetail",
      "outputs": [
        {
          "internalType": "bool",
          "name": "success",
          "type": "bool"
        }
      ],
      "stateMutability": "nonpayable",
      "type": "function"
    }
  ],
  "bytecode": "0x608060405234801561001057600080fd5b50611118806100206000396000f3fe608060405234801561001057600080fd5b50600436106100625760003560e01c806326d70925146100675780634e7ceacb146100835780635c2ccf36146100a15780636c9cb080146100d15780637c19976a146100ef578063ff22fb001461011f575b600080fd5b610081600480360381019061007c9190610cfc565b610150565b005b61008b6102e4565b6040516100989190610ebc565b60405180910390f35b6100bb60048036038101906100b69190610cbb565b610382565b6040516100c89190610f4b565b60405180910390f35b6100d96105e8565b6040516100e69190610f6d565b60405180910390f35b61010960048036038101906101049190610cbb565b6105f4565b6040516101169190610ed7565b60405180910390f35b61013960048036038101906101349190610d68565b6108cc565b604051610147929190610f14565b60405180910390f35b600073c8e1e64287c60c8256ed6ded0d5860cebd91684390508073ffffffffffffffffffffffffffffffffffffffff1663fc6f94686040518163ffffffff1660e01b815260040160206040518083038186803b1580156101af57600080fd5b505afa1580156101c3573d6000803e3d6000fd5b505050506040513d601f19601f820116820180604052508101906101e79190610c92565b73ffffffffffffffffffffffffffffffffffffffff163373ffffffffffffffffffffffffffffffffffffffff161461021e57600080fd5b610226610a86565b604051806040016040528085815260200184815250905060008190806001815401808255809150506001900390600052602060002090600202016000909190919091506000820151816000019080519060200190610285929190610aa0565b5060208201518160010190805190602001906102a2929190610aa0565b5050507f5f340806e8931d7819acf467dec4671613ad9e4a48ca5c059a7db2115bf1285b84846040516102d6929190610f14565b60405180910390a150505050565b60008073c8e1e64287c60c8256ed6ded0d5860cebd91684390508073ffffffffffffffffffffffffffffffffffffffff1663412753586040518163ffffffff1660e01b815260040160206040518083038186803b15801561034457600080fd5b505afa158015610358573d6000803e3d6000fd5b505050506040513d601f19601f8201168201806040525081019061037c9190610c92565b91505090565b61038a610a86565b60008090505b6000805490508110156105e15761045d600082815481106103ad57fe5b90600052602060002090600202016000018054600181600116156101000203166002900480601f0160208091040260200160405190810160405280929190818152602001828054600181600116156101000203166002900480156104525780601f1061042757610100808354040283529160200191610452565b820191906000526020600020905b81548152906001019060200180831161043557829003601f168201915b505050505084610a2d565b156105d4576000818154811061046f57fe5b9060005260206000209060020201604051806040016040529081600082018054600181600116156101000203166002900480601f0160208091040260200160405190810160405280929190818152602001828054600181600116156101000203166002900480156105215780601f106104f657610100808354040283529160200191610521565b820191906000526020600020905b81548152906001019060200180831161050457829003601f168201915b50505050508152602001600182018054600181600116156101000203166002900480601f0160208091040260200160405190810160405280929190818152602001828054600181600116156101000203166002900480156105c35780601f10610598576101008083540402835291602001916105c3565b820191906000526020600020905b8154815290600101906020018083116105a657829003601f168201915b5050505050815250509150506105e3565b8080600101915050610390565b505b919050565b60008080549050905090565b60008073c8e1e64287c60c8256ed6ded0d5860cebd91684390508073ffffffffffffffffffffffffffffffffffffffff1663fc6f94686040518163ffffffff1660e01b815260040160206040518083038186803b15801561065457600080fd5b505afa158015610668573d6000803e3d6000fd5b505050506040513d601f19601f8201168201806040525081019061068c9190610c92565b73ffffffffffffffffffffffffffffffffffffffff163373ffffffffffffffffffffffffffffffffffffffff16146106c357600080fd5b60008090505b6000805490508110156108c057610796600082815481106106e657fe5b90600052602060002090600202016000018054600181600116156101000203166002900480601f01602080910402602001604051908101604052809291908181526020018280546001816001161561010002031660029004801561078b5780601f106107605761010080835404028352916020019161078b565b820191906000526020600020905b81548152906001019060200180831161076e57829003601f168201915b505050505085610a2d565b156108b3576000600160008054905003815481106107b057fe5b9060005260206000209060020201600082815481106107cb57fe5b906000526020600020906002020160008201816000019080546001816001161561010002031660029004610800929190610b20565b5060018201816001019080546001816001161561010002031660029004610828929190610b20565b5090505060006001600080549050038154811061084157fe5b9060005260206000209060020201600080820160006108609190610ba7565b6001820160006108709190610ba7565b50507fb6f3aa1ccafa570bd54afeac6c6fbc222d96ecfc8694fa369a7a85fb8685c963846040516108a19190610ef2565b60405180910390a160019250506108c6565b80806001019150506106c9565b50600091505b50919050565b600081815481106108d957fe5b9060005260206000209060020201600091509050806000018054600181600116156101000203166002900480601f0160208091040260200160405190810160405280929190818152602001828054600181600116156101000203166002900480156109855780601f1061095a57610100808354040283529160200191610985565b820191906000526020600020905b81548152906001019060200180831161096857829003601f168201915b505050505090806001018054600181600116156101000203166002900480601f016020809104026020016040519081016040528092919081815260200182805460018160011615610100020316600290048015610a235780601f106109f857610100808354040283529160200191610a23565b820191906000526020600020905b815481529060010190602001808311610a0657829003601f168201915b5050505050905082565b600081604051602001610a409190610ea5565b6040516020818303038152906040528051906020012083604051602001610a679190610ea5565b6040516020818303038152906040528051906020012014905092915050565b604051806040016040528060608152602001606081525090565b828054600181600116156101000203166002900490600052602060002090601f016020900481019282601f10610ae157805160ff1916838001178555610b0f565b82800160010185558215610b0f579182015b82811115610b0e578251825591602001919060010190610af3565b5b509050610b1c9190610bef565b5090565b828054600181600116156101000203166002900490600052602060002090601f016020900481019282601f10610b595780548555610b96565b82800160010185558215610b9657600052602060002091601f016020900482015b82811115610b95578254825591600101919060010190610b7a565b5b509050610ba39190610bef565b5090565b50805460018160011615610100020316600290046000825580601f10610bcd5750610bec565b601f016020900490600052602060002090810190610beb9190610bef565b5b50565b610c1191905b80821115610c0d576000816000905550600101610bf5565b5090565b90565b600081519050610c23816110b4565b92915050565b600082601f830112610c3a57600080fd5b8135610c4d610c4882610fb5565b610f88565b91508082526020830160208301858383011115610c6957600080fd5b610c74838284611061565b50505092915050565b600081359050610c8c816110cb565b92915050565b600060208284031215610ca457600080fd5b6000610cb284828501610c14565b91505092915050565b600060208284031215610ccd57600080fd5b600082013567ffffffffffffffff811115610ce757600080fd5b610cf384828501610c29565b91505092915050565b60008060408385031215610d0f57600080fd5b600083013567ffffffffffffffff811115610d2957600080fd5b610d3585828601610c29565b925050602083013567ffffffffffffffff811115610d5257600080fd5b610d5e85828601610c29565b9150509250929050565b600060208284031215610d7a57600080fd5b6000610d8884828501610c7d565b91505092915050565b610d9a81611019565b82525050565b610da98161102b565b82525050565b6000610dba82610fe1565b610dc48185610fec565b9350610dd4818560208601611070565b610ddd816110a3565b840191505092915050565b6000610df382610fe1565b610dfd8185610ffd565b9350610e0d818560208601611070565b610e16816110a3565b840191505092915050565b6000610e2c82610fe1565b610e36818561100e565b9350610e46818560208601611070565b80840191505092915050565b60006040830160008301518482036000860152610e6f8282610daf565b91505060208301518482036020860152610e898282610daf565b9150508091505092915050565b610e9f81611057565b82525050565b6000610eb18284610e21565b915081905092915050565b6000602082019050610ed16000830184610d91565b92915050565b6000602082019050610eec6000830184610da0565b92915050565b60006020820190508181036000830152610f0c8184610de8565b905092915050565b60006040820190508181036000830152610f2e8185610de8565b90508181036020830152610f428184610de8565b90509392505050565b60006020820190508181036000830152610f658184610e52565b905092915050565b6000602082019050610f826000830184610e96565b92915050565b6000604051905081810181811067ffffffffffffffff82111715610fab57600080fd5b8060405250919050565b600067ffffffffffffffff821115610fcc57600080fd5b601f19601f8301169050602081019050919050565b600081519050919050565b600082825260208201905092915050565b600082825260208201905092915050565b600081905092915050565b600061102482611037565b9050919050565b60008115159050919050565b600073ffffffffffffffffffffffffffffffffffffffff82169050919050565b6000819050919050565b82818337600083830152505050565b60005b8381101561108e578082015181840152602081019050611073565b8381111561109d576000848401525b50505050565b6000601f19601f8301169050919050565b6110bd81611019565b81146110c857600080fd5b50565b6110d481611057565b81146110df57600080fd5b5056fea26469706673582212207dccd79ce0b2251ea515649316a9e6a8b038a231b50bf62c4ef404aa7d86ba3764736f6c634300060a0033",
  "immutableReferences": {},
  "source": "// SPDX-License-Identifier: MIT\npragma solidity ^0.6.10;\npragma experimental ABIEncoderV2;\n\nimport \"../access/ACL.sol\";\n\ncontract OrderDetails is ACL {\n\n    /// @dev Emited when contract is upgraded - See README.md for updgrade plan\n    event ContractUpgrade(address newContract);\n\n    event OrderDetailDelete(string orderId);\n    event OrderDetailEvent(string orderDetailId,string orderDetailContent) ;\n\n    \n    struct orderDetail{\n        string orderDetailId; \n        string orderDetailContent;\n    }\n    \n    orderDetail[] public orderDetails; \n   \n    function appendOrderDetail(string memory _orderDetailId, string memory _orderDetailContent) onlyAdmin external{\n        orderDetail memory newOrderDetail = orderDetail(_orderDetailId, _orderDetailContent);\n        orderDetails.push(newOrderDetail);\n        //emit event\n        emit OrderDetailEvent(_orderDetailId,_orderDetailContent);\n    }\n    \n    function getOrderDetailById(string memory _orderDetailId) public view returns (orderDetail memory od) {\n         for(uint256 i =0; i< orderDetails.length; i++){\n           if(compareStrings(orderDetails[i].orderDetailId , _orderDetailId)){\n              return orderDetails[i];\n           }\n       }\n    }\n    \n    function orderDetailsCount() public view returns (uint256 odc){\n        return orderDetails.length;\n    }\n    \n    function deleteOrderDetail(string memory _orderDetailId) onlyAdmin external returns(bool success){\n        for(uint256 i =0; i< orderDetails.length; i++){\n           if(compareStrings(orderDetails[i].orderDetailId , _orderDetailId)){\n              orderDetails[i] = orderDetails[orderDetails.length-1]; // pushing last into current arrray index which we gonna delete\n              delete orderDetails[orderDetails.length-1]; // now deleteing last index\n              emit OrderDetailDelete(_orderDetailId);\n              return true;\n           }\n       }\n       return false;\n    }\n \n    function compareStrings (string memory a, string memory b) internal pure returns (bool){\n       return keccak256(abi.encodePacked(a)) == keccak256(abi.encodePacked(b));\n    }\n\n}",
  "sourcePath": "/Users/lu/Desktop/ningbojj/JJToken/contracts/data/OrderDetails.sol",
  "compiler": {
    "name": "solc",
    "version": "0.6.10+commit.00c0fcaf.Emscripten.clang"
  },
  "schemaVersion": "3.2.3",
  "updatedAt": "2020-08-28T07:02:26.704Z",
  "devdoc": {
    "methods": {}
  },
  "userdoc": {
    "methods": {}
  }
}