{
  "contractName": "Roles",
  "abi": [
    {
      "anonymous": false,
      "inputs": [
        {
          "indexed": false,
          "internalType": "address",
          "name": "newContract",
          "type": "address"
        }
      ],
      "name": "ContractUpgrade",
      "type": "event"
    },
    {
      "anonymous": false,
      "inputs": [
        {
          "indexed": false,
          "internalType": "string",
          "name": "enterpriseId",
          "type": "string"
        }
      ],
      "name": "EnterpriseDelete",
      "type": "event"
    },
    {
      "anonymous": false,
      "inputs": [
        {
          "indexed": false,
          "internalType": "string",
          "name": "enterpriseName",
          "type": "string"
        },
        {
          "indexed": false,
          "internalType": "string",
          "name": "enterpriseId",
          "type": "string"
        },
        {
          "indexed": false,
          "internalType": "address",
          "name": "enterpriseAddress",
          "type": "address"
        }
      ],
      "name": "EnterpriseEvent",
      "type": "event"
    },
    {
      "anonymous": false,
      "inputs": [
        {
          "indexed": false,
          "internalType": "string",
          "name": "enterpriseId",
          "type": "string"
        },
        {
          "indexed": false,
          "internalType": "string",
          "name": "enterpriseName",
          "type": "string"
        },
        {
          "indexed": false,
          "internalType": "address",
          "name": "enterpriseAddress",
          "type": "address"
        }
      ],
      "name": "EnterpriseUpdated",
      "type": "event"
    },
    {
      "anonymous": false,
      "inputs": [
        {
          "indexed": false,
          "internalType": "string",
          "name": "storeId",
          "type": "string"
        }
      ],
      "name": "StoreDelete",
      "type": "event"
    },
    {
      "anonymous": false,
      "inputs": [
        {
          "indexed": false,
          "internalType": "string",
          "name": "storeName",
          "type": "string"
        },
        {
          "indexed": false,
          "internalType": "string",
          "name": "storeId",
          "type": "string"
        },
        {
          "indexed": false,
          "internalType": "address",
          "name": "storeAddress",
          "type": "address"
        }
      ],
      "name": "StoreEvent",
      "type": "event"
    },
    {
      "anonymous": false,
      "inputs": [
        {
          "indexed": false,
          "internalType": "string",
          "name": "storeId",
          "type": "string"
        },
        {
          "indexed": false,
          "internalType": "string",
          "name": "storeName",
          "type": "string"
        },
        {
          "indexed": false,
          "internalType": "address",
          "name": "storeAddress",
          "type": "address"
        }
      ],
      "name": "StoreUpdated",
      "type": "event"
    },
    {
      "inputs": [],
      "name": "adminAddress",
      "outputs": [
        {
          "internalType": "address",
          "name": "",
          "type": "address"
        }
      ],
      "stateMutability": "view",
      "type": "function"
    },
    {
      "inputs": [
        {
          "internalType": "uint256",
          "name": "",
          "type": "uint256"
        }
      ],
      "name": "enterpriseAddress",
      "outputs": [
        {
          "internalType": "address",
          "name": "",
          "type": "address"
        }
      ],
      "stateMutability": "view",
      "type": "function"
    },
    {
      "inputs": [
        {
          "internalType": "uint256",
          "name": "",
          "type": "uint256"
        }
      ],
      "name": "enterprises",
      "outputs": [
        {
          "internalType": "string",
          "name": "enterpriseName",
          "type": "string"
        },
        {
          "internalType": "string",
          "name": "enterpriseId",
          "type": "string"
        },
        {
          "internalType": "address",
          "name": "enterpriseAddress",
          "type": "address"
        }
      ],
      "stateMutability": "view",
      "type": "function"
    },
    {
      "inputs": [],
      "name": "feeAddress",
      "outputs": [
        {
          "internalType": "address",
          "name": "",
          "type": "address"
        }
      ],
      "stateMutability": "view",
      "type": "function"
    },
    {
      "inputs": [
        {
          "internalType": "uint256",
          "name": "",
          "type": "uint256"
        }
      ],
      "name": "storeAddress",
      "outputs": [
        {
          "internalType": "address",
          "name": "",
          "type": "address"
        }
      ],
      "stateMutability": "view",
      "type": "function"
    },
    {
      "inputs": [
        {
          "internalType": "uint256",
          "name": "",
          "type": "uint256"
        }
      ],
      "name": "stores",
      "outputs": [
        {
          "internalType": "string",
          "name": "storeName",
          "type": "string"
        },
        {
          "internalType": "string",
          "name": "storeId",
          "type": "string"
        },
        {
          "internalType": "address",
          "name": "storeAddress",
          "type": "address"
        }
      ],
      "stateMutability": "view",
      "type": "function"
    },
    {
      "inputs": [
        {
          "internalType": "string",
          "name": "_newStoreName",
          "type": "string"
        },
        {
          "internalType": "string",
          "name": "_newStoreId",
          "type": "string"
        },
        {
          "internalType": "address",
          "name": "_newStoreAddress",
          "type": "address"
        }
      ],
      "name": "appendStore",
      "outputs": [],
      "stateMutability": "nonpayable",
      "type": "function"
    },
    {
      "inputs": [
        {
          "internalType": "string",
          "name": "_newEnterpriseName",
          "type": "string"
        },
        {
          "internalType": "string",
          "name": "_newEnterpriseId",
          "type": "string"
        },
        {
          "internalType": "address",
          "name": "_newEnterpriseAddress",
          "type": "address"
        }
      ],
      "name": "appendEnterprise",
      "outputs": [],
      "stateMutability": "nonpayable",
      "type": "function"
    },
    {
      "inputs": [
        {
          "internalType": "string",
          "name": "_storeId",
          "type": "string"
        }
      ],
      "name": "getStoreById",
      "outputs": [
        {
          "internalType": "address",
          "name": "sAddress",
          "type": "address"
        }
      ],
      "stateMutability": "view",
      "type": "function"
    },
    {
      "inputs": [
        {
          "internalType": "string",
          "name": "_enterpriseId",
          "type": "string"
        }
      ],
      "name": "getEnterpriseById",
      "outputs": [
        {
          "internalType": "address",
          "name": "eAddress",
          "type": "address"
        }
      ],
      "stateMutability": "view",
      "type": "function"
    },
    {
      "inputs": [],
      "name": "storesCount",
      "outputs": [
        {
          "internalType": "uint256",
          "name": "sc",
          "type": "uint256"
        }
      ],
      "stateMutability": "view",
      "type": "function"
    },
    {
      "inputs": [
        {
          "internalType": "uint256",
          "name": "index",
          "type": "uint256"
        }
      ],
      "name": "veryStore",
      "outputs": [
        {
          "components": [
            {
              "internalType": "string",
              "name": "storeName",
              "type": "string"
            },
            {
              "internalType": "string",
              "name": "storeId",
              "type": "string"
            },
            {
              "internalType": "address",
              "name": "storeAddress",
              "type": "address"
            }
          ],
          "internalType": "struct Roles.store",
          "name": "vs",
          "type": "tuple"
        }
      ],
      "stateMutability": "view",
      "type": "function"
    },
    {
      "inputs": [],
      "name": "enterprisesCount",
      "outputs": [
        {
          "internalType": "uint256",
          "name": "ec",
          "type": "uint256"
        }
      ],
      "stateMutability": "view",
      "type": "function"
    },
    {
      "inputs": [
        {
          "internalType": "uint256",
          "name": "index",
          "type": "uint256"
        }
      ],
      "name": "veryEnterprise",
      "outputs": [
        {
          "components": [
            {
              "internalType": "string",
              "name": "enterpriseName",
              "type": "string"
            },
            {
              "internalType": "string",
              "name": "enterpriseId",
              "type": "string"
            },
            {
              "internalType": "address",
              "name": "enterpriseAddress",
              "type": "address"
            }
          ],
          "internalType": "struct Roles.enterprise",
          "name": "ve",
          "type": "tuple"
        }
      ],
      "stateMutability": "view",
      "type": "function"
    },
    {
      "inputs": [
        {
          "internalType": "string",
          "name": "_enterpriseId",
          "type": "string"
        },
        {
          "internalType": "string",
          "name": "_newEnterpriseName",
          "type": "string"
        },
        {
          "internalType": "address",
          "name": "_newEnterpriseAddress",
          "type": "address"
        }
      ],
      "name": "updateEnterprise",
      "outputs": [
        {
          "internalType": "bool",
          "name": "success",
          "type": "bool"
        }
      ],
      "stateMutability": "nonpayable",
      "type": "function"
    },
    {
      "inputs": [
        {
          "internalType": "string",
          "name": "_storeId",
          "type": "string"
        },
        {
          "internalType": "string",
          "name": "_newStoreName",
          "type": "string"
        },
        {
          "internalType": "address",
          "name": "_newStoreAddress",
          "type": "address"
        }
      ],
      "name": "updateStore",
      "outputs": [
        {
          "internalType": "bool",
          "name": "success",
          "type": "bool"
        }
      ],
      "stateMutability": "nonpayable",
      "type": "function"
    },
    {
      "inputs": [
        {
          "internalType": "string",
          "name": "_enterpriseId",
          "type": "string"
        }
      ],
      "name": "deleteEnterprise",
      "outputs": [
        {
          "internalType": "bool",
          "name": "success",
          "type": "bool"
        }
      ],
      "stateMutability": "nonpayable",
      "type": "function"
    },
    {
      "inputs": [
        {
          "internalType": "string",
          "name": "_storeId",
          "type": "string"
        }
      ],
      "name": "deleteStore",
      "outputs": [
        {
          "internalType": "bool",
          "name": "success",
          "type": "bool"
        }
      ],
      "stateMutability": "nonpayable",
      "type": "function"
    },
    {
      "inputs": [
        {
          "internalType": "address",
          "name": "_newFeeAddress",
          "type": "address"
        }
      ],
      "name": "setFeeAddress",
      "outputs": [],
      "stateMutability": "nonpayable",
      "type": "function"
    },
    {
      "inputs": [
        {
          "internalType": "address",
          "name": "_newAdmin",
          "type": "address"
        }
      ],
      "name": "setAdmin",
      "outputs": [],
      "stateMutability": "nonpayable",
      "type": "function"
    }
  ],
  "bytecode": "0x60806040526000600455600060055534801561001a57600080fd5b50612a598061002a6000396000f3fe608060405234801561001057600080fd5b506004361061012c5760003560e01c80639fbae286116100ad578063c7f9926011610071578063c7f99260146103a3578063e1984c30146103d3578063e8a59cd8146103f1578063fa9188d114610423578063fc6f94681461043f5761012c565b80639fbae286146102d7578063a221f3b214610309578063aa0cd2b814610339578063acd8799d14610357578063b530a671146103735761012c565b806341275358116100f45780634127535814610221578063547c07f71461023f578063704b6c021461026f5780638705fcd41461028b578063916a8029146102a75761012c565b80631318f45b146101315780631c9baf65146101615780632182a56214610191578063335499e5146101c15780633edd8ba2146101f1575b600080fd5b61014b60048036038101906101469190612558565b61045d565b60405161015891906127e8565b60405180910390f35b61017b60048036038101906101769190612517565b6106f7565b60405161018891906127e8565b60405180910390f35b6101ab60048036038101906101a691906125d7565b610b5c565b6040516101b8919061286a565b60405180910390f35b6101db60048036038101906101d691906125d7565b610d2b565b6040516101e8919061288c565b60405180910390f35b61020b60048036038101906102069190612517565b610efa565b60405161021891906127e8565b60405180910390f35b61022961135f565b60405161023691906127cd565b60405180910390f35b610259600480360381019061025491906125d7565b611385565b60405161026691906127cd565b60405180910390f35b610289600480360381019061028491906124ee565b6113c1565b005b6102a560048036038101906102a091906124ee565b61143e565b005b6102c160048036038101906102bc9190612517565b611515565b6040516102ce91906127cd565b60405180910390f35b6102f160048036038101906102ec91906125d7565b6116c2565b60405161030093929190612825565b60405180910390f35b610323600480360381019061031e91906125d7565b611849565b60405161033091906127cd565b60405180910390f35b610341611885565b60405161034e91906128ae565b60405180910390f35b610371600480360381019061036c9190612558565b61188f565b005b61038d60048036038101906103889190612517565b611a59565b60405161039a91906127cd565b60405180910390f35b6103bd60048036038101906103b89190612558565b611c06565b6040516103ca91906127e8565b60405180910390f35b6103db611ea0565b6040516103e891906128ae565b60405180910390f35b61040b600480360381019061040691906125d7565b611eaa565b60405161041a93929190612825565b60405180910390f35b61043d60048036038101906104389190612558565b612031565b005b6104476121fb565b60405161045491906127cd565b60405180910390f35b60008060009054906101000a900473ffffffffffffffffffffffffffffffffffffffff1673ffffffffffffffffffffffffffffffffffffffff163373ffffffffffffffffffffffffffffffffffffffff16146104b857600080fd5b60008090505b3073ffffffffffffffffffffffffffffffffffffffff1663e1984c306040518163ffffffff1660e01b815260040160206040518083038186803b15801561050457600080fd5b505afa158015610518573d6000803e3d6000fd5b505050506040513d601f19601f8201168201806040525081019061053c9190612600565b8110156106ea576106036007828154811061055357fe5b90600052602060002090600302016001018054600181600116156101000203166002900480601f0160208091040260200160405190810160405280929190818152602001828054600181600116156101000203166002900480156105f85780601f106105cd576101008083540402835291602001916105f8565b820191906000526020600020905b8154815290600101906020018083116105db57829003601f168201915b505050505086612220565b156106dd57826007828154811061061657fe5b906000526020600020906003020160020160006101000a81548173ffffffffffffffffffffffffffffffffffffffff021916908373ffffffffffffffffffffffffffffffffffffffff160217905550836007828154811061067357fe5b90600052602060002090600302016000019080519060200190610697929190612279565b507fe23e51bb20727e88bdefb30c89c017b3805dde81efc2e2073953eb78e58ea0418585856040516106cb93929190612825565b60405180910390a160019150506106f0565b80806001019150506104be565b50600090505b9392505050565b60008060009054906101000a900473ffffffffffffffffffffffffffffffffffffffff1673ffffffffffffffffffffffffffffffffffffffff163373ffffffffffffffffffffffffffffffffffffffff161461075257600080fd5b60008090505b3073ffffffffffffffffffffffffffffffffffffffff1663e1984c306040518163ffffffff1660e01b815260040160206040518083038186803b15801561079e57600080fd5b505afa1580156107b2573d6000803e3d6000fd5b505050506040513d601f19601f820116820180604052508101906107d69190612600565b811015610b515761089d600782815481106107ed57fe5b90600052602060002090600302016001018054600181600116156101000203166002900480601f0160208091040260200160405190810160405280929190818152602001828054600181600116156101000203166002900480156108925780601f1061086757610100808354040283529160200191610892565b820191906000526020600020905b81548152906001019060200180831161087557829003601f168201915b505050505084612220565b15610b4457600760013073ffffffffffffffffffffffffffffffffffffffff1663e1984c306040518163ffffffff1660e01b815260040160206040518083038186803b1580156108ec57600080fd5b505afa158015610900573d6000803e3d6000fd5b505050506040513d601f19601f820116820180604052508101906109249190612600565b038154811061092f57fe5b90600052602060002090600302016007828154811061094a57fe5b90600052602060002090600302016000820181600001908054600181600116156101000203166002900461097f9291906122f9565b50600182018160010190805460018160011615610100020316600290046109a79291906122f9565b506002820160009054906101000a900473ffffffffffffffffffffffffffffffffffffffff168160020160006101000a81548173ffffffffffffffffffffffffffffffffffffffff021916908373ffffffffffffffffffffffffffffffffffffffff160217905550905050600760013073ffffffffffffffffffffffffffffffffffffffff1663e1984c306040518163ffffffff1660e01b815260040160206040518083038186803b158015610a5c57600080fd5b505afa158015610a70573d6000803e3d6000fd5b505050506040513d601f19601f82011682018060405250810190610a949190612600565b0381548110610a9f57fe5b906000526020600020906003020160008082016000610abe9190612380565b600182016000610ace9190612380565b6002820160006101000a81549073ffffffffffffffffffffffffffffffffffffffff021916905550506001600554036005819055507fb478ce3e3e5faf29ee108d51b58b8b76e87b8d3de5b008ea32992b9dd7fdaf8d83604051610b329190612803565b60405180910390a16001915050610b57565b8080600101915050610758565b50600090505b919050565b610b646123c8565b60078281548110610b7157fe5b9060005260206000209060030201604051806060016040529081600082018054600181600116156101000203166002900480601f016020809104026020016040519081016040528092919081815260200182805460018160011615610100020316600290048015610c235780601f10610bf857610100808354040283529160200191610c23565b820191906000526020600020905b815481529060010190602001808311610c0657829003601f168201915b50505050508152602001600182018054600181600116156101000203166002900480601f016020809104026020016040519081016040528092919081815260200182805460018160011615610100020316600290048015610cc55780601f10610c9a57610100808354040283529160200191610cc5565b820191906000526020600020905b815481529060010190602001808311610ca857829003601f168201915b505050505081526020016002820160009054906101000a900473ffffffffffffffffffffffffffffffffffffffff1673ffffffffffffffffffffffffffffffffffffffff1673ffffffffffffffffffffffffffffffffffffffff16815250509050919050565b610d336123ff565b60068281548110610d4057fe5b9060005260206000209060030201604051806060016040529081600082018054600181600116156101000203166002900480601f016020809104026020016040519081016040528092919081815260200182805460018160011615610100020316600290048015610df25780601f10610dc757610100808354040283529160200191610df2565b820191906000526020600020905b815481529060010190602001808311610dd557829003601f168201915b50505050508152602001600182018054600181600116156101000203166002900480601f016020809104026020016040519081016040528092919081815260200182805460018160011615610100020316600290048015610e945780601f10610e6957610100808354040283529160200191610e94565b820191906000526020600020905b815481529060010190602001808311610e7757829003601f168201915b505050505081526020016002820160009054906101000a900473ffffffffffffffffffffffffffffffffffffffff1673ffffffffffffffffffffffffffffffffffffffff1673ffffffffffffffffffffffffffffffffffffffff16815250509050919050565b60008060009054906101000a900473ffffffffffffffffffffffffffffffffffffffff1673ffffffffffffffffffffffffffffffffffffffff163373ffffffffffffffffffffffffffffffffffffffff1614610f5557600080fd5b60008090505b3073ffffffffffffffffffffffffffffffffffffffff1663aa0cd2b86040518163ffffffff1660e01b815260040160206040518083038186803b158015610fa157600080fd5b505afa158015610fb5573d6000803e3d6000fd5b505050506040513d601f19601f82011682018060405250810190610fd99190612600565b811015611354576110a060068281548110610ff057fe5b90600052602060002090600302016001018054600181600116156101000203166002900480601f0160208091040260200160405190810160405280929190818152602001828054600181600116156101000203166002900480156110955780601f1061106a57610100808354040283529160200191611095565b820191906000526020600020905b81548152906001019060200180831161107857829003601f168201915b505050505084612220565b1561134757600660013073ffffffffffffffffffffffffffffffffffffffff1663aa0cd2b86040518163ffffffff1660e01b815260040160206040518083038186803b1580156110ef57600080fd5b505afa158015611103573d6000803e3d6000fd5b505050506040513d601f19601f820116820180604052508101906111279190612600565b038154811061113257fe5b90600052602060002090600302016006828154811061114d57fe5b9060005260206000209060030201600082018160000190805460018160011615610100020316600290046111829291906122f9565b50600182018160010190805460018160011615610100020316600290046111aa9291906122f9565b506002820160009054906101000a900473ffffffffffffffffffffffffffffffffffffffff168160020160006101000a81548173ffffffffffffffffffffffffffffffffffffffff021916908373ffffffffffffffffffffffffffffffffffffffff160217905550905050600660013073ffffffffffffffffffffffffffffffffffffffff1663aa0cd2b86040518163ffffffff1660e01b815260040160206040518083038186803b15801561125f57600080fd5b505afa158015611273573d6000803e3d6000fd5b505050506040513d601f19601f820116820180604052508101906112979190612600565b03815481106112a257fe5b9060005260206000209060030201600080820160006112c19190612380565b6001820160006112d19190612380565b6002820160006101000a81549073ffffffffffffffffffffffffffffffffffffffff021916905550506001600454036004819055507fc9c20932f810729419e6b7360018de88c2a500f4d04fd389f76035588c36c5a3836040516113359190612803565b60405180910390a1600191505061135a565b8080600101915050610f5b565b50600090505b919050565b600160009054906101000a900473ffffffffffffffffffffffffffffffffffffffff1681565b6003818154811061139257fe5b906000526020600020016000915054906101000a900473ffffffffffffffffffffffffffffffffffffffff1681565b600073ffffffffffffffffffffffffffffffffffffffff168173ffffffffffffffffffffffffffffffffffffffff1614156113fb57600080fd5b806000806101000a81548173ffffffffffffffffffffffffffffffffffffffff021916908373ffffffffffffffffffffffffffffffffffffffff16021790555050565b6000809054906101000a900473ffffffffffffffffffffffffffffffffffffffff1673ffffffffffffffffffffffffffffffffffffffff163373ffffffffffffffffffffffffffffffffffffffff161461149757600080fd5b600073ffffffffffffffffffffffffffffffffffffffff168173ffffffffffffffffffffffffffffffffffffffff1614156114d157600080fd5b80600160006101000a81548173ffffffffffffffffffffffffffffffffffffffff021916908373ffffffffffffffffffffffffffffffffffffffff16021790555050565b600080600090505b3073ffffffffffffffffffffffffffffffffffffffff1663aa0cd2b86040518163ffffffff1660e01b815260040160206040518083038186803b15801561156357600080fd5b505afa158015611577573d6000803e3d6000fd5b505050506040513d601f19601f8201168201806040525081019061159b9190612600565b8110156116bb57611662600682815481106115b257fe5b90600052602060002090600302016001018054600181600116156101000203166002900480601f0160208091040260200160405190810160405280929190818152602001828054600181600116156101000203166002900480156116575780601f1061162c57610100808354040283529160200191611657565b820191906000526020600020905b81548152906001019060200180831161163a57829003601f168201915b505050505084612220565b156116ae576006818154811061167457fe5b906000526020600020906003020160020160009054906101000a900473ffffffffffffffffffffffffffffffffffffffff169150506116bd565b808060010191505061151d565b505b919050565b600781815481106116cf57fe5b9060005260206000209060030201600091509050806000018054600181600116156101000203166002900480601f01602080910402602001604051908101604052809291908181526020018280546001816001161561010002031660029004801561177b5780601f106117505761010080835404028352916020019161177b565b820191906000526020600020905b81548152906001019060200180831161175e57829003601f168201915b505050505090806001018054600181600116156101000203166002900480601f0160208091040260200160405190810160405280929190818152602001828054600181600116156101000203166002900480156118195780601f106117ee57610100808354040283529160200191611819565b820191906000526020600020905b8154815290600101906020018083116117fc57829003601f168201915b5050505050908060020160009054906101000a900473ffffffffffffffffffffffffffffffffffffffff16905083565b6002818154811061185657fe5b906000526020600020016000915054906101000a900473ffffffffffffffffffffffffffffffffffffffff1681565b6000600454905090565b6000809054906101000a900473ffffffffffffffffffffffffffffffffffffffff1673ffffffffffffffffffffffffffffffffffffffff163373ffffffffffffffffffffffffffffffffffffffff16146118e857600080fd5b600073ffffffffffffffffffffffffffffffffffffffff168173ffffffffffffffffffffffffffffffffffffffff16141561192257600080fd5b61192a6123c8565b60405180606001604052808581526020018481526020018373ffffffffffffffffffffffffffffffffffffffff168152509050600781908060018154018082558091505060019003906000526020600020906003020160009091909190915060008201518160000190805190602001906119a5929190612279565b5060208201518160010190805190602001906119c2929190612279565b5060408201518160020160006101000a81548173ffffffffffffffffffffffffffffffffffffffff021916908373ffffffffffffffffffffffffffffffffffffffff16021790555050506001600554016005819055507f76e630c36dc7ee889d3627230758dd10de8b99036cdf45c645c38716ce9535df848484604051611a4b93929190612825565b60405180910390a150505050565b600080600090505b3073ffffffffffffffffffffffffffffffffffffffff1663e1984c306040518163ffffffff1660e01b815260040160206040518083038186803b158015611aa757600080fd5b505afa158015611abb573d6000803e3d6000fd5b505050506040513d601f19601f82011682018060405250810190611adf9190612600565b811015611bff57611ba660078281548110611af657fe5b90600052602060002090600302016001018054600181600116156101000203166002900480601f016020809104026020016040519081016040528092919081815260200182805460018160011615610100020316600290048015611b9b5780601f10611b7057610100808354040283529160200191611b9b565b820191906000526020600020905b815481529060010190602001808311611b7e57829003601f168201915b505050505084612220565b15611bf25760078181548110611bb857fe5b906000526020600020906003020160020160009054906101000a900473ffffffffffffffffffffffffffffffffffffffff16915050611c01565b8080600101915050611a61565b505b919050565b60008060009054906101000a900473ffffffffffffffffffffffffffffffffffffffff1673ffffffffffffffffffffffffffffffffffffffff163373ffffffffffffffffffffffffffffffffffffffff1614611c6157600080fd5b60008090505b3073ffffffffffffffffffffffffffffffffffffffff1663aa0cd2b86040518163ffffffff1660e01b815260040160206040518083038186803b158015611cad57600080fd5b505afa158015611cc1573d6000803e3d6000fd5b505050506040513d601f19601f82011682018060405250810190611ce59190612600565b811015611e9357611dac60068281548110611cfc57fe5b90600052602060002090600302016001018054600181600116156101000203166002900480601f016020809104026020016040519081016040528092919081815260200182805460018160011615610100020316600290048015611da15780601f10611d7657610100808354040283529160200191611da1565b820191906000526020600020905b815481529060010190602001808311611d8457829003601f168201915b505050505086612220565b15611e86578260068281548110611dbf57fe5b906000526020600020906003020160020160006101000a81548173ffffffffffffffffffffffffffffffffffffffff021916908373ffffffffffffffffffffffffffffffffffffffff1602179055508360068281548110611e1c57fe5b90600052602060002090600302016000019080519060200190611e40929190612279565b507f82cfdc55b540392d84a5e3fece48cf94bbcb2a5ac40a0ec26fd710bc198fa1b0858585604051611e7493929190612825565b60405180910390a16001915050611e99565b8080600101915050611c67565b50600090505b9392505050565b6000600554905090565b60068181548110611eb757fe5b9060005260206000209060030201600091509050806000018054600181600116156101000203166002900480601f016020809104026020016040519081016040528092919081815260200182805460018160011615610100020316600290048015611f635780601f10611f3857610100808354040283529160200191611f63565b820191906000526020600020905b815481529060010190602001808311611f4657829003601f168201915b505050505090806001018054600181600116156101000203166002900480601f0160208091040260200160405190810160405280929190818152602001828054600181600116156101000203166002900480156120015780601f10611fd657610100808354040283529160200191612001565b820191906000526020600020905b815481529060010190602001808311611fe457829003601f168201915b5050505050908060020160009054906101000a900473ffffffffffffffffffffffffffffffffffffffff16905083565b6000809054906101000a900473ffffffffffffffffffffffffffffffffffffffff1673ffffffffffffffffffffffffffffffffffffffff163373ffffffffffffffffffffffffffffffffffffffff161461208a57600080fd5b600073ffffffffffffffffffffffffffffffffffffffff168173ffffffffffffffffffffffffffffffffffffffff1614156120c457600080fd5b6120cc6123ff565b60405180606001604052808581526020018481526020018373ffffffffffffffffffffffffffffffffffffffff16815250905060068190806001815401808255809150506001900390600052602060002090600302016000909190919091506000820151816000019080519060200190612147929190612279565b506020820151816001019080519060200190612164929190612279565b5060408201518160020160006101000a81548173ffffffffffffffffffffffffffffffffffffffff021916908373ffffffffffffffffffffffffffffffffffffffff16021790555050506001600454016004819055507f6fbd3a99554a60b36b9b2f038f9b80d8d37e9b32806986f43896911e1947bf108484846040516121ed93929190612825565b60405180910390a150505050565b6000809054906101000a900473ffffffffffffffffffffffffffffffffffffffff1681565b60008160405160200161223391906127b6565b604051602081830303815290604052805190602001208360405160200161225a91906127b6565b6040516020818303038152906040528051906020012014905092915050565b828054600181600116156101000203166002900490600052602060002090601f016020900481019282601f106122ba57805160ff19168380011785556122e8565b828001600101855582156122e8579182015b828111156122e75782518255916020019190600101906122cc565b5b5090506122f59190612436565b5090565b828054600181600116156101000203166002900490600052602060002090601f016020900481019282601f10612332578054855561236f565b8280016001018555821561236f57600052602060002091601f016020900482015b8281111561236e578254825591600101919060010190612353565b5b50905061237c9190612436565b5090565b50805460018160011615610100020316600290046000825580601f106123a657506123c5565b601f0160209004906000526020600020908101906123c49190612436565b5b50565b60405180606001604052806060815260200160608152602001600073ffffffffffffffffffffffffffffffffffffffff1681525090565b60405180606001604052806060815260200160608152602001600073ffffffffffffffffffffffffffffffffffffffff1681525090565b61245891905b8082111561245457600081600090555060010161243c565b5090565b90565b60008135905061246a816129f5565b92915050565b600082601f83011261248157600080fd5b813561249461248f826128f6565b6128c9565b915080825260208301602083018583830111156124b057600080fd5b6124bb8382846129a2565b50505092915050565b6000813590506124d381612a0c565b92915050565b6000815190506124e881612a0c565b92915050565b60006020828403121561250057600080fd5b600061250e8482850161245b565b91505092915050565b60006020828403121561252957600080fd5b600082013567ffffffffffffffff81111561254357600080fd5b61254f84828501612470565b91505092915050565b60008060006060848603121561256d57600080fd5b600084013567ffffffffffffffff81111561258757600080fd5b61259386828701612470565b935050602084013567ffffffffffffffff8111156125b057600080fd5b6125bc86828701612470565b92505060406125cd8682870161245b565b9150509250925092565b6000602082840312156125e957600080fd5b60006125f7848285016124c4565b91505092915050565b60006020828403121561261257600080fd5b6000612620848285016124d9565b91505092915050565b6126328161295a565b82525050565b6126418161295a565b82525050565b6126508161296c565b82525050565b600061266182612922565b61266b818561292d565b935061267b8185602086016129b1565b612684816129e4565b840191505092915050565b600061269a82612922565b6126a4818561293e565b93506126b48185602086016129b1565b6126bd816129e4565b840191505092915050565b60006126d382612922565b6126dd818561294f565b93506126ed8185602086016129b1565b80840191505092915050565b600060608301600083015184820360008601526127168282612656565b915050602083015184820360208601526127308282612656565b91505060408301516127456040860182612629565b508091505092915050565b6000606083016000830151848203600086015261276d8282612656565b915050602083015184820360208601526127878282612656565b915050604083015161279c6040860182612629565b508091505092915050565b6127b081612998565b82525050565b60006127c282846126c8565b915081905092915050565b60006020820190506127e26000830184612638565b92915050565b60006020820190506127fd6000830184612647565b92915050565b6000602082019050818103600083015261281d818461268f565b905092915050565b6000606082019050818103600083015261283f818661268f565b90508181036020830152612853818561268f565b90506128626040830184612638565b949350505050565b6000602082019050818103600083015261288481846126f9565b905092915050565b600060208201905081810360008301526128a68184612750565b905092915050565b60006020820190506128c360008301846127a7565b92915050565b6000604051905081810181811067ffffffffffffffff821117156128ec57600080fd5b8060405250919050565b600067ffffffffffffffff82111561290d57600080fd5b601f19601f8301169050602081019050919050565b600081519050919050565b600082825260208201905092915050565b600082825260208201905092915050565b600081905092915050565b600061296582612978565b9050919050565b60008115159050919050565b600073ffffffffffffffffffffffffffffffffffffffff82169050919050565b6000819050919050565b82818337600083830152505050565b60005b838110156129cf5780820151818401526020810190506129b4565b838111156129de576000848401525b50505050565b6000601f19601f8301169050919050565b6129fe8161295a565b8114612a0957600080fd5b50565b612a1581612998565b8114612a2057600080fd5b5056fea2646970667358221220231da8252873ac7ef98808d0778720e38e9742fac4e1b5b9df1e218813bd918664736f6c634300060a0033",
  "immutableReferences": {},
  "source": "// SPDX-License-Identifier: MIT\npragma solidity ^0.6.10;\npragma experimental ABIEncoderV2;\n\ncontract Roles {\n\n    /// @dev Emited when contract is upgraded - See README.md for updgrade plan\n    event ContractUpgrade(address newContract);\n    // The addresses of the accounts (or contracts) that can execute actions within each roles.\n    address public adminAddress;\n    address public feeAddress;\n    address[] public storeAddress;\n    address[] public enterpriseAddress;\n    uint256 storesLength = 0;\n    uint256 enterprisesLength = 0;\n    \n    event StoreEvent(string storeName , string storeId, address storeAddress);\n    event EnterpriseEvent(string enterpriseName , string enterpriseId, address enterpriseAddress);\n    event EnterpriseUpdated(string enterpriseId , string enterpriseName,address enterpriseAddress);\n    event StoreUpdated(string storeId , string storeName,address storeAddress);\n    event EnterpriseDelete(string enterpriseId);\n    event StoreDelete(string storeId);\n\n\n    \n    struct store{\n      string storeName;\n      string storeId;\n      address storeAddress;\n    }\n    \n    struct enterprise{\n      string enterpriseName;\n      string enterpriseId;\n      address enterpriseAddress;\n    }\n    \n   store[] public stores; \n   enterprise[] public enterprises;\n   \n    function appendStore(string memory _newStoreName, string memory _newStoreId ,address _newStoreAddress) onlyAdmin external{\n        require(_newStoreAddress != address(0));\n        store memory newStore = store(_newStoreName , _newStoreId, _newStoreAddress);\n        stores.push(newStore);\n        storesLength = storesLength + 1;\n        //emit event\n        emit StoreEvent (_newStoreName, _newStoreId, _newStoreAddress);\n    }\n    \n    function appendEnterprise (string memory _newEnterpriseName, string memory _newEnterpriseId ,address  _newEnterpriseAddress ) onlyAdmin external {\n        require(_newEnterpriseAddress != address(0));\n        enterprise memory newEnterprise = enterprise(_newEnterpriseName , _newEnterpriseId, _newEnterpriseAddress);\n        enterprises.push(newEnterprise);\n        enterprisesLength = enterprisesLength + 1;\n        //emit event\n        emit EnterpriseEvent (_newEnterpriseName, _newEnterpriseId, _newEnterpriseAddress);\n    }\n    \n    \n    function getStoreById(string memory _storeId) public view returns (address sAddress) {\n         for(uint256 i =0; i< this.storesCount(); i++){\n           if(compareStrings(stores[i].storeId , _storeId)){\n              return stores[i].storeAddress;\n           }\n       }\n    }\n    \n    function getEnterpriseById(string memory  _enterpriseId) public view returns (address eAddress) {\n        for(uint256 i =0; i< this.enterprisesCount(); i++){\n           if(compareStrings(enterprises[i].enterpriseId , _enterpriseId)){\n              return enterprises[i].enterpriseAddress;\n           }\n       }\n    }\n    \n    \n    function storesCount() public view returns (uint256 sc){\n        return storesLength;\n    }\n    \n    function veryStore(uint index) public view returns (store memory vs){\n        return stores[index];\n    }  \n\n    function enterprisesCount() public view returns (uint256 ec){\n        return enterprisesLength;\n    }\n    \n    function veryEnterprise(uint index) public view returns (enterprise memory ve){\n        return enterprises[index];\n    }  \n    \n    function updateEnterprise(string memory _enterpriseId, string memory _newEnterpriseName ,address  _newEnterpriseAddress ) onlyAdmin external returns (bool success){\n       //This has a problem we need loop\n       for(uint256 i =0; i< this.enterprisesCount(); i++){\n           if(compareStrings(enterprises[i].enterpriseId , _enterpriseId)){\n              enterprises[i].enterpriseAddress = _newEnterpriseAddress;\n              enterprises[i].enterpriseName = _newEnterpriseName;\n              emit EnterpriseUpdated(_enterpriseId,_newEnterpriseName,_newEnterpriseAddress);\n              return true;\n           }\n       }\n       return false;\n    }\n    \n    function updateStore(string memory _storeId, string memory _newStoreName ,address  _newStoreAddress ) onlyAdmin external returns (bool success){\n       //This has a problem we need loop\n       for(uint256 i =0; i< this.storesCount(); i++){\n           if(compareStrings(stores[i].storeId , _storeId)){\n              stores[i].storeAddress = _newStoreAddress;\n              stores[i].storeName = _newStoreName;\n              emit StoreUpdated(_storeId,_newStoreName,_newStoreAddress);\n              return true;\n           }\n       }\n       return false;\n    }\n    \n    \n    function deleteEnterprise(string memory _enterpriseId) onlyAdmin external returns(bool success){\n        for(uint256 i =0; i< this.enterprisesCount(); i++){\n           if(compareStrings(enterprises[i].enterpriseId , _enterpriseId)){\n              enterprises[i] = enterprises[this.enterprisesCount() - 1]; // pushing last into current arrray index which we gonna delete\n              delete enterprises[this.enterprisesCount() - 1]; // now deleteing last index\n              enterprisesLength = enterprisesLength - 1;\n              emit EnterpriseDelete(_enterpriseId);\n              return true;\n           }\n       }\n       return false;\n   }\n   \n    \n    function deleteStore(string memory _storeId) onlyAdmin external returns(bool success){\n        for(uint256 i =0; i< this.storesCount(); i++){\n           if(compareStrings(stores[i].storeId , _storeId)){\n              stores[i] = stores[this.storesCount() - 1]; // pushing last into current arrray index which we gonna delete\n              delete stores[this.storesCount() - 1]; // now deleteing last index\n              storesLength = storesLength - 1;\n              emit StoreDelete(_storeId);\n              return true;\n           }\n       }\n       return false;\n   }\n   \n    \n    function compareStrings (string memory a, string memory b) internal pure returns (bool){\n       return keccak256(abi.encodePacked(a)) == keccak256(abi.encodePacked(b));\n    }\n   \n    function setFeeAddress(address _newFeeAddress) onlyAdmin external{\n        require(_newFeeAddress != address(0));\n        feeAddress = _newFeeAddress;\n    }\n    \n    function setAdmin(address _newAdmin) external {\n        require(_newAdmin != address(0));\n        adminAddress = _newAdmin;\n    }\n    \n \n    modifier onlyAdmin() {\n        require(msg.sender == adminAddress);\n        _;\n    }\n\n}\n",
  "sourcePath": "/Users/lu/Desktop/ningbojj/JJToken/contracts/access/Roles.sol",
  "compiler": {
    "name": "solc",
    "version": "0.6.10+commit.00c0fcaf.Emscripten.clang"
  },
  "schemaVersion": "3.2.3",
  "updatedAt": "2020-08-28T07:02:26.685Z",
  "devdoc": {
    "methods": {}
  },
  "userdoc": {
    "methods": {}
  }
}