{
  "contractName": "Orders",
  "abi": [
    {
      "anonymous": false,
      "inputs": [
        {
          "indexed": false,
          "internalType": "address",
          "name": "newContract",
          "type": "address"
        }
      ],
      "name": "ContractUpgrade",
      "type": "event"
    },
    {
      "anonymous": false,
      "inputs": [
        {
          "indexed": false,
          "internalType": "string",
          "name": "orderId",
          "type": "string"
        }
      ],
      "name": "OrderDelete",
      "type": "event"
    },
    {
      "anonymous": false,
      "inputs": [
        {
          "indexed": false,
          "internalType": "string",
          "name": "orderId",
          "type": "string"
        },
        {
          "indexed": false,
          "internalType": "string",
          "name": "orderContent",
          "type": "string"
        }
      ],
      "name": "OrderEvent",
      "type": "event"
    },
    {
      "inputs": [],
      "name": "getFeeAddress",
      "outputs": [
        {
          "internalType": "address",
          "name": "fAddress",
          "type": "address"
        }
      ],
      "stateMutability": "view",
      "type": "function"
    },
    {
      "inputs": [
        {
          "internalType": "uint256",
          "name": "",
          "type": "uint256"
        }
      ],
      "name": "orders",
      "outputs": [
        {
          "internalType": "string",
          "name": "orderId",
          "type": "string"
        },
        {
          "internalType": "string",
          "name": "orderContent",
          "type": "string"
        }
      ],
      "stateMutability": "view",
      "type": "function"
    },
    {
      "inputs": [
        {
          "internalType": "string",
          "name": "_orderId",
          "type": "string"
        },
        {
          "internalType": "string",
          "name": "_orderContent",
          "type": "string"
        }
      ],
      "name": "appendOrder",
      "outputs": [],
      "stateMutability": "nonpayable",
      "type": "function"
    },
    {
      "inputs": [
        {
          "internalType": "string",
          "name": "_orderId",
          "type": "string"
        }
      ],
      "name": "getOrderById",
      "outputs": [
        {
          "components": [
            {
              "internalType": "string",
              "name": "orderId",
              "type": "string"
            },
            {
              "internalType": "string",
              "name": "orderContent",
              "type": "string"
            }
          ],
          "internalType": "struct Orders.order",
          "name": "o",
          "type": "tuple"
        }
      ],
      "stateMutability": "view",
      "type": "function"
    },
    {
      "inputs": [],
      "name": "ordersCount",
      "outputs": [
        {
          "internalType": "uint256",
          "name": "oc",
          "type": "uint256"
        }
      ],
      "stateMutability": "view",
      "type": "function"
    },
    {
      "inputs": [
        {
          "internalType": "string",
          "name": "_orderId",
          "type": "string"
        }
      ],
      "name": "deleteOrder",
      "outputs": [
        {
          "internalType": "bool",
          "name": "success",
          "type": "bool"
        }
      ],
      "stateMutability": "nonpayable",
      "type": "function"
    }
  ],
  "bytecode": "0x608060405234801561001057600080fd5b50610f7b806100206000396000f3fe608060405234801561001057600080fd5b50600436106100625760003560e01c806335daa731146100675780634e7ceacb14610085578063a85c38ef146100a3578063b2486f8a146100d4578063c2a2b32f14610104578063c5df16a014610120575b600080fd5b61006f610150565b60405161007c9190610dd0565b60405180910390f35b61008d61015c565b60405161009a9190610d1f565b60405180910390f35b6100bd60048036038101906100b89190610bcb565b6101fa565b6040516100cb929190610d77565b60405180910390f35b6100ee60048036038101906100e99190610b1e565b61035b565b6040516100fb9190610d3a565b60405180910390f35b61011e60048036038101906101199190610b5f565b610565565b005b61013a60048036038101906101359190610b1e565b61062a565b6040516101479190610dae565b60405180910390f35b60008080549050905090565b6000807322e7dd9b7c2708de833b880ef9804d3e31689fa690508073ffffffffffffffffffffffffffffffffffffffff1663412753586040518163ffffffff1660e01b815260040160206040518083038186803b1580156101bc57600080fd5b505afa1580156101d0573d6000803e3d6000fd5b505050506040513d601f19601f820116820180604052508101906101f49190610af5565b91505090565b6000818154811061020757fe5b9060005260206000209060020201600091509050806000018054600181600116156101000203166002900480601f0160208091040260200160405190810160405280929190818152602001828054600181600116156101000203166002900480156102b35780601f10610288576101008083540402835291602001916102b3565b820191906000526020600020905b81548152906001019060200180831161029657829003601f168201915b505050505090806001018054600181600116156101000203166002900480601f0160208091040260200160405190810160405280929190818152602001828054600181600116156101000203166002900480156103515780601f1061032657610100808354040283529160200191610351565b820191906000526020600020905b81548152906001019060200180831161033457829003601f168201915b5050505050905082565b600080600090505b60008054905081101561055a576104306000828154811061038057fe5b90600052602060002090600202016000018054600181600116156101000203166002900480601f0160208091040260200160405190810160405280929190818152602001828054600181600116156101000203166002900480156104255780601f106103fa57610100808354040283529160200191610425565b820191906000526020600020905b81548152906001019060200180831161040857829003601f168201915b505050505084610890565b1561054d5760006001600080549050038154811061044a57fe5b90600052602060002090600202016000828154811061046557fe5b90600052602060002090600202016000820181600001908054600181600116156101000203166002900461049a9291906108e9565b50600182018160010190805460018160011615610100020316600290046104c29291906108e9565b509050506000600160008054905003815481106104db57fe5b9060005260206000209060020201600080820160006104fa9190610970565b60018201600061050a9190610970565b50507faeda55afbac962857637b95c91657b5151582d7d7c8f3017869fa4f7c90017ed8360405161053b9190610d55565b60405180910390a16001915050610560565b8080600101915050610363565b50600090505b919050565b61056d6109b8565b6040518060400160405280848152602001838152509050600081908060018154018082558091505060019003906000526020600020906002020160009091909190915060008201518160000190805190602001906105cc9291906109d2565b5060208201518160010190805190602001906105e99291906109d2565b5050507fe78b55f770fe18dbbb9a1dee3f5119e7156eba318276aa1824d546e1ff13073e838360405161061d929190610d77565b60405180910390a1505050565b6106326109b8565b60008090505b600080549050811015610889576107056000828154811061065557fe5b90600052602060002090600202016000018054600181600116156101000203166002900480601f0160208091040260200160405190810160405280929190818152602001828054600181600116156101000203166002900480156106fa5780601f106106cf576101008083540402835291602001916106fa565b820191906000526020600020905b8154815290600101906020018083116106dd57829003601f168201915b505050505084610890565b1561087c576000818154811061071757fe5b9060005260206000209060020201604051806040016040529081600082018054600181600116156101000203166002900480601f0160208091040260200160405190810160405280929190818152602001828054600181600116156101000203166002900480156107c95780601f1061079e576101008083540402835291602001916107c9565b820191906000526020600020905b8154815290600101906020018083116107ac57829003601f168201915b50505050508152602001600182018054600181600116156101000203166002900480601f01602080910402602001604051908101604052809291908181526020018280546001816001161561010002031660029004801561086b5780601f106108405761010080835404028352916020019161086b565b820191906000526020600020905b81548152906001019060200180831161084e57829003601f168201915b50505050508152505091505061088b565b8080600101915050610638565b505b919050565b6000816040516020016108a39190610d08565b60405160208183030381529060405280519060200120836040516020016108ca9190610d08565b6040516020818303038152906040528051906020012014905092915050565b828054600181600116156101000203166002900490600052602060002090601f016020900481019282601f10610922578054855561095f565b8280016001018555821561095f57600052602060002091601f016020900482015b8281111561095e578254825591600101919060010190610943565b5b50905061096c9190610a52565b5090565b50805460018160011615610100020316600290046000825580601f1061099657506109b5565b601f0160209004906000526020600020908101906109b49190610a52565b5b50565b604051806040016040528060608152602001606081525090565b828054600181600116156101000203166002900490600052602060002090601f016020900481019282601f10610a1357805160ff1916838001178555610a41565b82800160010185558215610a41579182015b82811115610a40578251825591602001919060010190610a25565b5b509050610a4e9190610a52565b5090565b610a7491905b80821115610a70576000816000905550600101610a58565b5090565b90565b600081519050610a8681610f17565b92915050565b600082601f830112610a9d57600080fd5b8135610ab0610aab82610e18565b610deb565b91508082526020830160208301858383011115610acc57600080fd5b610ad7838284610ec4565b50505092915050565b600081359050610aef81610f2e565b92915050565b600060208284031215610b0757600080fd5b6000610b1584828501610a77565b91505092915050565b600060208284031215610b3057600080fd5b600082013567ffffffffffffffff811115610b4a57600080fd5b610b5684828501610a8c565b91505092915050565b60008060408385031215610b7257600080fd5b600083013567ffffffffffffffff811115610b8c57600080fd5b610b9885828601610a8c565b925050602083013567ffffffffffffffff811115610bb557600080fd5b610bc185828601610a8c565b9150509250929050565b600060208284031215610bdd57600080fd5b6000610beb84828501610ae0565b91505092915050565b610bfd81610e7c565b82525050565b610c0c81610e8e565b82525050565b6000610c1d82610e44565b610c278185610e4f565b9350610c37818560208601610ed3565b610c4081610f06565b840191505092915050565b6000610c5682610e44565b610c608185610e60565b9350610c70818560208601610ed3565b610c7981610f06565b840191505092915050565b6000610c8f82610e44565b610c998185610e71565b9350610ca9818560208601610ed3565b80840191505092915050565b60006040830160008301518482036000860152610cd28282610c12565b91505060208301518482036020860152610cec8282610c12565b9150508091505092915050565b610d0281610eba565b82525050565b6000610d148284610c84565b915081905092915050565b6000602082019050610d346000830184610bf4565b92915050565b6000602082019050610d4f6000830184610c03565b92915050565b60006020820190508181036000830152610d6f8184610c4b565b905092915050565b60006040820190508181036000830152610d918185610c4b565b90508181036020830152610da58184610c4b565b90509392505050565b60006020820190508181036000830152610dc88184610cb5565b905092915050565b6000602082019050610de56000830184610cf9565b92915050565b6000604051905081810181811067ffffffffffffffff82111715610e0e57600080fd5b8060405250919050565b600067ffffffffffffffff821115610e2f57600080fd5b601f19601f8301169050602081019050919050565b600081519050919050565b600082825260208201905092915050565b600082825260208201905092915050565b600081905092915050565b6000610e8782610e9a565b9050919050565b60008115159050919050565b600073ffffffffffffffffffffffffffffffffffffffff82169050919050565b6000819050919050565b82818337600083830152505050565b60005b83811015610ef1578082015181840152602081019050610ed6565b83811115610f00576000848401525b50505050565b6000601f19601f8301169050919050565b610f2081610e7c565b8114610f2b57600080fd5b50565b610f3781610eba565b8114610f4257600080fd5b5056fea26469706673582212207b3fa4a596b0cf429dda4595eb8d93c31a90dcffda81aa93aea967711a54c84664736f6c634300060a0033",
  "immutableReferences": {},
  "source": "// SPDX-License-Identifier: MIT\npragma solidity ^0.6.10;\npragma experimental ABIEncoderV2;\n\nimport \"../access/ACL.sol\";\n\ncontract Orders is ACL {\n\n    /// @dev Emited when contract is upgraded - See README.md for updgrade plan\n    event ContractUpgrade(address newContract);\n\n    event OrderDelete(string orderId);\n    event OrderEvent(string orderId,string orderContent) ;\n\n    \n    struct order{\n        string orderId; \n        string orderContent;\n    }\n    \n    \n    order[] public orders; \n   \n    function appendOrder(string memory _orderId, string memory _orderContent) external{\n        order memory newOrder = order(_orderId,_orderContent);\n        orders.push(newOrder);\n        //emit event\n        emit OrderEvent(_orderId,_orderContent);\n    }\n    \n    \n    function getOrderById(string memory _orderId) public view returns (order memory o) {\n         for(uint256 i =0; i< orders.length; i++){\n           if(compareStrings(orders[i].orderId , _orderId)){\n              return orders[i];\n           }\n       }\n    }\n    \n    function ordersCount() public view returns (uint256 oc){\n        return orders.length;\n    }\n    \n    function deleteOrder(string memory _orderId) external returns(bool success){\n        for(uint256 i =0; i< orders.length; i++){\n           if(compareStrings(orders[i].orderId , _orderId)){\n              orders[i] = orders[orders.length-1]; // pushing last into current arrray index which we gonna delete\n              delete orders[orders.length-1]; // now deleteing last index\n              emit OrderDelete(_orderId);\n              return true;\n           }\n       }\n       return false;\n    }\n \n    function compareStrings (string memory a, string memory b) internal pure returns (bool){\n       return keccak256(abi.encodePacked(a)) == keccak256(abi.encodePacked(b));\n    }\n\n}\n",
  "sourcePath": "/Users/lu/Desktop/ningbojj/JJToken/contracts/data/Orders.sol",
  "compiler": {
    "name": "solc",
    "version": "0.6.10+commit.00c0fcaf.Emscripten.clang"
  },
  "schemaVersion": "3.2.3",
  "updatedAt": "2020-08-20T12:45:46.962Z",
  "devdoc": {
    "methods": {}
  },
  "userdoc": {
    "methods": {}
  }
}